{
  "contractName": "Cacao",
  "abi": [
    {
      "constant": true,
      "inputs": [],
      "name": "frozen",
      "outputs": [
        {
          "name": "",
          "type": "bool"
        }
      ],
      "payable": false,
      "stateMutability": "view",
      "type": "function"
    },
    {
      "constant": true,
      "inputs": [],
      "name": "name",
      "outputs": [
        {
          "name": "",
          "type": "string"
        }
      ],
      "payable": false,
      "stateMutability": "view",
      "type": "function"
    },
    {
      "constant": false,
      "inputs": [
        {
          "name": "reference",
          "type": "string"
        }
      ],
      "name": "generateDestructionReference",
      "outputs": [],
      "payable": false,
      "stateMutability": "nonpayable",
      "type": "function"
    },
    {
      "constant": false,
      "inputs": [
        {
          "name": "_creatorAddress",
          "type": "address"
        },
        {
          "name": "_hash",
          "type": "bytes32"
        },
        {
          "name": "_v",
          "type": "uint8"
        },
        {
          "name": "_r",
          "type": "bytes32"
        },
        {
          "name": "_s",
          "type": "bytes32"
        },
        {
          "name": "_oldAddress1",
          "type": "address"
        },
        {
          "name": "_oldAddress2",
          "type": "address"
        },
        {
          "name": "_oldAddress3",
          "type": "address"
        },
        {
          "name": "_newAddress1",
          "type": "address"
        },
        {
          "name": "_newAddress2",
          "type": "address"
        },
        {
          "name": "_newAddress3",
          "type": "address"
        }
      ],
      "name": "resetDistributionAddresses",
      "outputs": [],
      "payable": false,
      "stateMutability": "nonpayable",
      "type": "function"
    },
    {
      "constant": true,
      "inputs": [],
      "name": "cacaosInHell",
      "outputs": [
        {
          "name": "",
          "type": "uint256"
        }
      ],
      "payable": false,
      "stateMutability": "view",
      "type": "function"
    },
    {
      "constant": true,
      "inputs": [],
      "name": "decimals",
      "outputs": [
        {
          "name": "",
          "type": "uint8"
        }
      ],
      "payable": false,
      "stateMutability": "view",
      "type": "function"
    },
    {
      "constant": true,
      "inputs": [],
      "name": "_decimals",
      "outputs": [
        {
          "name": "",
          "type": "uint8"
        }
      ],
      "payable": false,
      "stateMutability": "view",
      "type": "function"
    },
    {
      "constant": false,
      "inputs": [
        {
          "name": "_signatureAddress",
          "type": "address"
        },
        {
          "name": "_hash",
          "type": "bytes32"
        },
        {
          "name": "_v",
          "type": "uint8"
        },
        {
          "name": "_r",
          "type": "bytes32"
        },
        {
          "name": "_s",
          "type": "bytes32"
        },
        {
          "name": "_vote",
          "type": "bool"
        }
      ],
      "name": "voteToReplaceAddress",
      "outputs": [],
      "payable": false,
      "stateMutability": "nonpayable",
      "type": "function"
    },
    {
      "constant": false,
      "inputs": [
        {
          "name": "_amount",
          "type": "uint256"
        }
      ],
      "name": "obliterateRescuedCacaos",
      "outputs": [],
      "payable": false,
      "stateMutability": "nonpayable",
      "type": "function"
    },
    {
      "constant": false,
      "inputs": [],
      "name": "registerTransaction",
      "outputs": [],
      "payable": false,
      "stateMutability": "nonpayable",
      "type": "function"
    },
    {
      "constant": true,
      "inputs": [],
      "name": "blockThreshold",
      "outputs": [
        {
          "name": "",
          "type": "uint256"
        }
      ],
      "payable": false,
      "stateMutability": "view",
      "type": "function"
    },
    {
      "constant": false,
      "inputs": [
        {
          "name": "_amount",
          "type": "uint256"
        }
      ],
      "name": "obliterate",
      "outputs": [],
      "payable": false,
      "stateMutability": "nonpayable",
      "type": "function"
    },
    {
      "constant": false,
      "inputs": [],
      "name": "freeze",
      "outputs": [],
      "payable": false,
      "stateMutability": "nonpayable",
      "type": "function"
    },
    {
      "constant": true,
      "inputs": [],
      "name": "cacaosBurned",
      "outputs": [
        {
          "name": "",
          "type": "uint256"
        }
      ],
      "payable": false,
      "stateMutability": "view",
      "type": "function"
    },
    {
      "constant": true,
      "inputs": [
        {
          "name": "_owner",
          "type": "address"
        }
      ],
      "name": "balanceOf",
      "outputs": [
        {
          "name": "",
          "type": "uint256"
        }
      ],
      "payable": false,
      "stateMutability": "view",
      "type": "function"
    },
    {
      "constant": false,
      "inputs": [
        {
          "name": "_amount",
          "type": "uint256"
        },
        {
          "name": "_reference",
          "type": "string"
        }
      ],
      "name": "burn",
      "outputs": [],
      "payable": false,
      "stateMutability": "nonpayable",
      "type": "function"
    },
    {
      "constant": false,
      "inputs": [
        {
          "name": "_signatureAddress",
          "type": "address"
        },
        {
          "name": "_hash",
          "type": "bytes32"
        },
        {
          "name": "_v",
          "type": "uint8"
        },
        {
          "name": "_r",
          "type": "bytes32"
        },
        {
          "name": "_s",
          "type": "bytes32"
        },
        {
          "name": "_originalAddress",
          "type": "address"
        },
        {
          "name": "_proposedAddress",
          "type": "address"
        }
      ],
      "name": "replaceAddress",
      "outputs": [],
      "payable": false,
      "stateMutability": "nonpayable",
      "type": "function"
    },
    {
      "constant": false,
      "inputs": [
        {
          "name": "_address",
          "type": "address"
        }
      ],
      "name": "rescue",
      "outputs": [],
      "payable": false,
      "stateMutability": "nonpayable",
      "type": "function"
    },
    {
      "constant": true,
      "inputs": [],
      "name": "isReplacingAddresses",
      "outputs": [
        {
          "name": "result",
          "type": "bool"
        }
      ],
      "payable": false,
      "stateMutability": "view",
      "type": "function"
    },
    {
      "constant": true,
      "inputs": [
        {
          "name": "_address",
          "type": "address"
        }
      ],
      "name": "isDistributor",
      "outputs": [
        {
          "name": "result",
          "type": "bool"
        }
      ],
      "payable": false,
      "stateMutability": "view",
      "type": "function"
    },
    {
      "constant": false,
      "inputs": [
        {
          "name": "_vote",
          "type": "bool"
        }
      ],
      "name": "confirmCreation",
      "outputs": [],
      "payable": false,
      "stateMutability": "nonpayable",
      "type": "function"
    },
    {
      "constant": true,
      "inputs": [],
      "name": "symbol",
      "outputs": [
        {
          "name": "",
          "type": "string"
        }
      ],
      "payable": false,
      "stateMutability": "view",
      "type": "function"
    },
    {
      "constant": false,
      "inputs": [
        {
          "name": "_to",
          "type": "address"
        },
        {
          "name": "_amount",
          "type": "uint256"
        }
      ],
      "name": "startDistribution",
      "outputs": [],
      "payable": false,
      "stateMutability": "nonpayable",
      "type": "function"
    },
    {
      "constant": true,
      "inputs": [],
      "name": "cacaosInCirculation",
      "outputs": [
        {
          "name": "",
          "type": "uint256"
        }
      ],
      "payable": false,
      "stateMutability": "view",
      "type": "function"
    },
    {
      "constant": true,
      "inputs": [],
      "name": "_symbol",
      "outputs": [
        {
          "name": "",
          "type": "string"
        }
      ],
      "payable": false,
      "stateMutability": "view",
      "type": "function"
    },
    {
      "constant": true,
      "inputs": [],
      "name": "cacaosRescued",
      "outputs": [
        {
          "name": "",
          "type": "uint256"
        }
      ],
      "payable": false,
      "stateMutability": "view",
      "type": "function"
    },
    {
      "constant": true,
      "inputs": [],
      "name": "cacaosInLimbo",
      "outputs": [
        {
          "name": "",
          "type": "uint256"
        }
      ],
      "payable": false,
      "stateMutability": "view",
      "type": "function"
    },
    {
      "constant": false,
      "inputs": [
        {
          "name": "_to",
          "type": "address"
        },
        {
          "name": "_vote",
          "type": "bool"
        }
      ],
      "name": "confirmDistribution",
      "outputs": [],
      "payable": false,
      "stateMutability": "nonpayable",
      "type": "function"
    },
    {
      "constant": true,
      "inputs": [],
      "name": "cacaosInPurgatory",
      "outputs": [
        {
          "name": "",
          "type": "uint256"
        }
      ],
      "payable": false,
      "stateMutability": "view",
      "type": "function"
    },
    {
      "constant": true,
      "inputs": [],
      "name": "_name",
      "outputs": [
        {
          "name": "",
          "type": "string"
        }
      ],
      "payable": false,
      "stateMutability": "view",
      "type": "function"
    },
    {
      "constant": true,
      "inputs": [
        {
          "name": "_owner",
          "type": "address"
        },
        {
          "name": "_spender",
          "type": "address"
        }
      ],
      "name": "allowance",
      "outputs": [
        {
          "name": "",
          "type": "uint256"
        }
      ],
      "payable": false,
      "stateMutability": "view",
      "type": "function"
    },
    {
      "constant": true,
      "inputs": [],
      "name": "isCreating",
      "outputs": [
        {
          "name": "result",
          "type": "bool"
        }
      ],
      "payable": false,
      "stateMutability": "view",
      "type": "function"
    },
    {
      "constant": true,
      "inputs": [
        {
          "name": "_address",
          "type": "address"
        }
      ],
      "name": "isCreator",
      "outputs": [
        {
          "name": "result",
          "type": "bool"
        }
      ],
      "payable": false,
      "stateMutability": "view",
      "type": "function"
    },
    {
      "constant": false,
      "inputs": [
        {
          "name": "_publicCreatorAddress1",
          "type": "address"
        },
        {
          "name": "_hash1",
          "type": "bytes32"
        },
        {
          "name": "_v1",
          "type": "uint8"
        },
        {
          "name": "_r1",
          "type": "bytes32"
        },
        {
          "name": "_s1",
          "type": "bytes32"
        },
        {
          "name": "_publicCreatorAddress2",
          "type": "address"
        },
        {
          "name": "_hash2",
          "type": "bytes32"
        },
        {
          "name": "_v2",
          "type": "uint8"
        },
        {
          "name": "_r2",
          "type": "bytes32"
        },
        {
          "name": "_s2",
          "type": "bytes32"
        }
      ],
      "name": "confirmBatchReset",
      "outputs": [],
      "payable": false,
      "stateMutability": "nonpayable",
      "type": "function"
    },
    {
      "constant": false,
      "inputs": [
        {
          "name": "_amount",
          "type": "uint256"
        }
      ],
      "name": "startCreation",
      "outputs": [],
      "payable": false,
      "stateMutability": "nonpayable",
      "type": "function"
    },
    {
      "inputs": [
        {
          "name": "_creatorAddress1",
          "type": "address"
        },
        {
          "name": "_creatorAddress2",
          "type": "address"
        },
        {
          "name": "_creatorAddress3",
          "type": "address"
        },
        {
          "name": "_creatorAddress4",
          "type": "address"
        },
        {
          "name": "_distributionAddress1",
          "type": "address"
        },
        {
          "name": "_distributionAddress2",
          "type": "address"
        },
        {
          "name": "_distributionAddress3",
          "type": "address"
        }
      ],
      "payable": false,
      "stateMutability": "nonpayable",
      "type": "constructor"
    },
    {
      "payable": false,
      "stateMutability": "nonpayable",
      "type": "fallback"
    },
    {
      "anonymous": false,
      "inputs": [],
      "name": "Frozen",
      "type": "event"
    },
    {
      "anonymous": false,
      "inputs": [
        {
          "indexed": true,
          "name": "_account",
          "type": "address"
        },
        {
          "indexed": false,
          "name": "_amount",
          "type": "uint256"
        }
      ],
      "name": "Rescued",
      "type": "event"
    },
    {
      "anonymous": false,
      "inputs": [
        {
          "indexed": true,
          "name": "_account",
          "type": "address"
        },
        {
          "indexed": false,
          "name": "_amount",
          "type": "uint256"
        },
        {
          "indexed": false,
          "name": "_reference",
          "type": "string"
        }
      ],
      "name": "Burned",
      "type": "event"
    },
    {
      "anonymous": false,
      "inputs": [
        {
          "indexed": false,
          "name": "_amount",
          "type": "uint256"
        }
      ],
      "name": "Obliterated",
      "type": "event"
    },
    {
      "anonymous": false,
      "inputs": [
        {
          "indexed": false,
          "name": "_to",
          "type": "address"
        },
        {
          "indexed": false,
          "name": "_amount",
          "type": "uint256"
        }
      ],
      "name": "Distributed",
      "type": "event"
    },
    {
      "anonymous": false,
      "inputs": [
        {
          "indexed": false,
          "name": "_amount",
          "type": "uint256"
        }
      ],
      "name": "Created",
      "type": "event"
    },
    {
      "anonymous": false,
      "inputs": [
        {
          "indexed": false,
          "name": "_originalAddress",
          "type": "address"
        },
        {
          "indexed": false,
          "name": "_newAddress",
          "type": "address"
        }
      ],
      "name": "Replaced",
      "type": "event"
    },
    {
      "anonymous": false,
      "inputs": [
        {
          "indexed": true,
          "name": "owner",
          "type": "address"
        },
        {
          "indexed": true,
          "name": "spender",
          "type": "address"
        },
        {
          "indexed": false,
          "name": "value",
          "type": "uint256"
        }
      ],
      "name": "Approval",
      "type": "event"
    },
    {
      "anonymous": false,
      "inputs": [
        {
          "indexed": true,
          "name": "from",
          "type": "address"
        },
        {
          "indexed": true,
          "name": "to",
          "type": "address"
        },
        {
          "indexed": false,
          "name": "value",
          "type": "uint256"
        }
      ],
      "name": "Transfer",
      "type": "event"
    },
    {
      "constant": true,
      "inputs": [],
      "name": "totalSupply",
      "outputs": [
        {
          "name": "",
          "type": "uint256"
        }
      ],
      "payable": false,
      "stateMutability": "view",
      "type": "function"
    },
    {
      "constant": false,
      "inputs": [
        {
          "name": "_to",
          "type": "address"
        },
        {
          "name": "_value",
          "type": "uint256"
        }
      ],
      "name": "transfer",
      "outputs": [
        {
          "name": "",
          "type": "bool"
        }
      ],
      "payable": false,
      "stateMutability": "nonpayable",
      "type": "function"
    },
    {
      "constant": false,
      "inputs": [
        {
          "name": "_from",
          "type": "address"
        },
        {
          "name": "_to",
          "type": "address"
        },
        {
          "name": "_value",
          "type": "uint256"
        }
      ],
      "name": "transferFrom",
      "outputs": [
        {
          "name": "",
          "type": "bool"
        }
      ],
      "payable": false,
      "stateMutability": "nonpayable",
      "type": "function"
    },
    {
      "constant": false,
      "inputs": [
        {
          "name": "_spender",
          "type": "address"
        },
        {
          "name": "_value",
          "type": "uint256"
        }
      ],
      "name": "approve",
      "outputs": [
        {
          "name": "",
          "type": "bool"
        }
      ],
      "payable": false,
      "stateMutability": "nonpayable",
      "type": "function"
    },
    {
      "constant": false,
      "inputs": [
        {
          "name": "_spender",
          "type": "address"
        },
        {
          "name": "_addedValue",
          "type": "uint256"
        }
      ],
      "name": "increaseApproval",
      "outputs": [
        {
          "name": "success",
          "type": "bool"
        }
      ],
      "payable": false,
      "stateMutability": "nonpayable",
      "type": "function"
    },
    {
      "constant": false,
      "inputs": [
        {
          "name": "_spender",
          "type": "address"
        },
        {
          "name": "_subtractedValue",
          "type": "uint256"
        }
      ],
      "name": "decreaseApproval",
      "outputs": [
        {
          "name": "success",
          "type": "bool"
        }
      ],
      "payable": false,
      "stateMutability": "nonpayable",
      "type": "function"
    },
    {
      "constant": false,
      "inputs": [
        {
          "name": "_tokenContract",
          "type": "address"
        },
        {
          "name": "_to",
          "type": "address"
        }
      ],
      "name": "withdrawExternalTokens",
      "outputs": [
        {
          "name": "",
          "type": "bool"
        }
      ],
      "payable": false,
      "stateMutability": "nonpayable",
      "type": "function"
    },
    {
      "constant": false,
      "inputs": [
        {
          "name": "_to",
          "type": "address"
        }
      ],
      "name": "withdrawEther",
      "outputs": [],
      "payable": false,
      "stateMutability": "nonpayable",
      "type": "function"
    }
  ],
  "bytecode": "0x60606040526000600860146101000a81548160ff021916908360ff1602179055506000600860156101000a81548160ff021916908360ff160217905550600060125560006013556000601460006101000a81548160ff021916908360ff1602179055506000601460016101000a81548160ff021916908360ff16021790555060006016556000601855600060195562a71570601b556000601c556000601d556000601f60006101000a81548160ff0219169083151502179055503415620000c557600080fd5b60405160e08062005dae8339810160405280805190602001909190805190602001909190805190602001909190805190602001909190805190602001909190805190602001909190805190602001909190505033878787878787876200013f88620002ed6401000000000262004468176401000000009004565b6200015e87620002ed6401000000000262004468176401000000009004565b6200017d86620002ed6401000000000262004468176401000000009004565b6200019c85620002ed6401000000000262004468176401000000009004565b620001bb84620002ed6401000000000262004468176401000000009004565b620001da83620004f2640100000000026200466a176401000000009004565b620001f982620004f2640100000000026200466a176401000000009004565b6200021881620004f2640100000000026200466a176401000000009004565b50505050505050506040805190810160405280600381526020017f43414f0000000000000000000000000000000000000000000000000000000000815250600290805190602001906200026d929190620006f7565b506040805190810160405280600581526020017f436163616f00000000000000000000000000000000000000000000000000000081525060039080519060200190620002bb929190620006f7565b506003600460006101000a81548160ff021916908360ff160217905550600060058190555050505050505050620007a6565b600073ffffffffffffffffffffffffffffffffffffffff168173ffffffffffffffffffffffffffffffffffffffff16141515156200032757fe5b600660008273ffffffffffffffffffffffffffffffffffffffff1673ffffffffffffffffffffffffffffffffffffffff16815260200190815260200160002060000160009054906101000a900460ff16158015620003d25750600660008273ffffffffffffffffffffffffffffffffffffffff1673ffffffffffffffffffffffffffffffffffffffff16815260200190815260200160002060000160029054906101000a900460ff16155b1515620003de57600080fd5b6001600660008373ffffffffffffffffffffffffffffffffffffffff1673ffffffffffffffffffffffffffffffffffffffff16815260200190815260200160002060000160006101000a81548160ff0219169083151502179055506000600660008373ffffffffffffffffffffffffffffffffffffffff1673ffffffffffffffffffffffffffffffffffffffff16815260200190815260200160002060000160016101000a81548160ff0219169083151502179055506001600660008373ffffffffffffffffffffffffffffffffffffffff1673ffffffffffffffffffffffffffffffffffffffff16815260200190815260200160002060000160026101000a81548160ff02191690831515021790555050565b600073ffffffffffffffffffffffffffffffffffffffff168173ffffffffffffffffffffffffffffffffffffffff16141515156200052c57fe5b600660008273ffffffffffffffffffffffffffffffffffffffff1673ffffffffffffffffffffffffffffffffffffffff16815260200190815260200160002060000160019054906101000a900460ff16158015620005d75750600660008273ffffffffffffffffffffffffffffffffffffffff1673ffffffffffffffffffffffffffffffffffffffff16815260200190815260200160002060000160029054906101000a900460ff16155b1515620005e357600080fd5b6000600660008373ffffffffffffffffffffffffffffffffffffffff1673ffffffffffffffffffffffffffffffffffffffff16815260200190815260200160002060000160006101000a81548160ff0219169083151502179055506001600660008373ffffffffffffffffffffffffffffffffffffffff1673ffffffffffffffffffffffffffffffffffffffff16815260200190815260200160002060000160016101000a81548160ff0219169083151502179055506001600660008373ffffffffffffffffffffffffffffffffffffffff1673ffffffffffffffffffffffffffffffffffffffff16815260200190815260200160002060000160026101000a81548160ff02191690831515021790555050565b828054600181600116156101000203166002900490600052602060002090601f016020900481019282601f106200073a57805160ff19168380011785556200076b565b828001600101855582156200076b579182015b828111156200076a5782518255916020019190600101906200074d565b5b5090506200077a91906200077e565b5090565b620007a391905b808211156200079f57600081600090555060010162000785565b5090565b90565b6155f880620007b66000396000f30060606040526004361061020f576000357c0100000000000000000000000000000000000000000000000000000000900463ffffffff168063054f7d9c1461021f57806306fdde031461024c578063095ea7b3146102da5780630b9a26ca146103345780630c75f2f214610362578063134691261461048857806318160ddd146104b157806323b872dd146104da578063313ce5671461055357806332424aa314610582578063390d2b7a146105b157806346b0c81b1461062857806346b727c01461064b5780634c41a6c7146106605780636219e1441461068957806362a5af3b146106ac57806364ed95b2146106c157806366188463146106ea57806370a08231146107445780637641e6f3146107915780637fd6cd61146107c8578063839006f21461087257806384cbed1a146108ab5780638ca77bd71461091b5780638f0c86fa14610948578063923f37d31461099957806395d89b41146109be5780639636de3c14610a4c578063a9059cbb14610a8e578063a937c77814610ae8578063af933b5714610b11578063b09f126614610b4a578063b327a62c14610bd8578063bce701aa14610c01578063c6dee57714610c2a578063ca76955114610c6e578063d28d885214610c97578063d73dd62314610d25578063dd62ed3e14610d7f578063deedc73114610deb578063efd4606514610e18578063f5409acd14610e69578063fd1e18b814610f27575b341561021a57600080fd5b600080fd5b341561022a57600080fd5b610232610f4a565b604051808215151515815260200191505060405180910390f35b341561025757600080fd5b61025f610f5d565b6040518080602001828103825283818151815260200191508051906020019080838360005b8381101561029f578082015181840152602081019050610284565b50505050905090810190601f1680156102cc5780820380516001836020036101000a031916815260200191505b509250505060405180910390f35b34156102e557600080fd5b61031a600480803573ffffffffffffffffffffffffffffffffffffffff16906020019091908035906020019091905050611005565b604051808215151515815260200191505060405180910390f35b341561033f57600080fd5b61036060048080359060200190820180359060200191909192905050611051565b005b341561036d57600080fd5b610486600480803573ffffffffffffffffffffffffffffffffffffffff169060200190919080356000191690602001909190803560ff16906020019091908035600019169060200190919080356000191690602001909190803573ffffffffffffffffffffffffffffffffffffffff1690602001909190803573ffffffffffffffffffffffffffffffffffffffff1690602001909190803573ffffffffffffffffffffffffffffffffffffffff1690602001909190803573ffffffffffffffffffffffffffffffffffffffff1690602001909190803573ffffffffffffffffffffffffffffffffffffffff1690602001909190803573ffffffffffffffffffffffffffffffffffffffff1690602001909190505061112d565b005b341561049357600080fd5b61049b611794565b6040518082815260200191505060405180910390f35b34156104bc57600080fd5b6104c461179a565b6040518082815260200191505060405180910390f35b34156104e557600080fd5b610539600480803573ffffffffffffffffffffffffffffffffffffffff1690602001909190803573ffffffffffffffffffffffffffffffffffffffff169060200190919080359060200190919050506117b0565b604051808215151515815260200191505060405180910390f35b341561055e57600080fd5b6105666117fe565b604051808260ff1660ff16815260200191505060405180910390f35b341561058d57600080fd5b610595611815565b604051808260ff1660ff16815260200191505060405180910390f35b34156105bc57600080fd5b610626600480803573ffffffffffffffffffffffffffffffffffffffff169060200190919080356000191690602001909190803560ff1690602001909190803560001916906020019091908035600019169060200190919080351515906020019091905050611828565b005b341561063357600080fd5b6106496004808035906020019091905050611d8b565b005b341561065657600080fd5b61065e611dd7565b005b341561066b57600080fd5b610673611dea565b6040518082815260200191505060405180910390f35b341561069457600080fd5b6106aa6004808035906020019091905050611df0565b005b34156106b757600080fd5b6106bf611e72565b005b34156106cc57600080fd5b6106d4611ecf565b6040518082815260200191505060405180910390f35b34156106f557600080fd5b61072a600480803573ffffffffffffffffffffffffffffffffffffffff16906020019091908035906020019091905050611ed5565b604051808215151515815260200191505060405180910390f35b341561074f57600080fd5b61077b600480803573ffffffffffffffffffffffffffffffffffffffff16906020019091905050611f21565b6040518082815260200191505060405180910390f35b341561079c57600080fd5b6107c660048080359060200190919080359060200190820180359060200191909192905050611f69565b005b34156107d357600080fd5b610870600480803573ffffffffffffffffffffffffffffffffffffffff169060200190919080356000191690602001909190803560ff16906020019091908035600019169060200190919080356000191690602001909190803573ffffffffffffffffffffffffffffffffffffffff1690602001909190803573ffffffffffffffffffffffffffffffffffffffff1690602001909190505061219e565b005b341561087d57600080fd5b6108a9600480803573ffffffffffffffffffffffffffffffffffffffff16906020019091905050612401565b005b34156108b657600080fd5b610901600480803573ffffffffffffffffffffffffffffffffffffffff1690602001909190803573ffffffffffffffffffffffffffffffffffffffff1690602001909190505061252f565b604051808215151515815260200191505060405180910390f35b341561092657600080fd5b61092e6126c1565b604051808215151515815260200191505060405180910390f35b341561095357600080fd5b61097f600480803573ffffffffffffffffffffffffffffffffffffffff169060200190919050506126f4565b604051808215151515815260200191505060405180910390f35b34156109a457600080fd5b6109bc600480803515159060200190919050506127a5565b005b34156109c957600080fd5b6109d1612a37565b6040518080602001828103825283818151815260200191508051906020019080838360005b83811015610a115780820151818401526020810190506109f6565b50505050905090810190601f168015610a3e5780820380516001836020036101000a031916815260200191505b509250505060405180910390f35b3415610a5757600080fd5b610a8c600480803573ffffffffffffffffffffffffffffffffffffffff16906020019091908035906020019091905050612adf565b005b3415610a9957600080fd5b610ace600480803573ffffffffffffffffffffffffffffffffffffffff16906020019091908035906020019091905050612da7565b604051808215151515815260200191505060405180910390f35b3415610af357600080fd5b610afb612df3565b6040518082815260200191505060405180910390f35b3415610b1c57600080fd5b610b48600480803573ffffffffffffffffffffffffffffffffffffffff16906020019091905050612df9565b005b3415610b5557600080fd5b610b5d612e67565b6040518080602001828103825283818151815260200191508051906020019080838360005b83811015610b9d578082015181840152602081019050610b82565b50505050905090810190601f168015610bca5780820380516001836020036101000a031916815260200191505b509250505060405180910390f35b3415610be357600080fd5b610beb612f05565b6040518082815260200191505060405180910390f35b3415610c0c57600080fd5b610c14612f0b565b6040518082815260200191505060405180910390f35b3415610c3557600080fd5b610c6c600480803573ffffffffffffffffffffffffffffffffffffffff169060200190919080351515906020019091905050612f11565b005b3415610c7957600080fd5b610c8161326b565b6040518082815260200191505060405180910390f35b3415610ca257600080fd5b610caa613271565b6040518080602001828103825283818151815260200191508051906020019080838360005b83811015610cea578082015181840152602081019050610ccf565b50505050905090810190601f168015610d175780820380516001836020036101000a031916815260200191505b509250505060405180910390f35b3415610d3057600080fd5b610d65600480803573ffffffffffffffffffffffffffffffffffffffff1690602001909190803590602001909190505061330f565b604051808215151515815260200191505060405180910390f35b3415610d8a57600080fd5b610dd5600480803573ffffffffffffffffffffffffffffffffffffffff1690602001909190803573ffffffffffffffffffffffffffffffffffffffff1690602001909190505061335b565b6040518082815260200191505060405180910390f35b3415610df657600080fd5b610dfe6133e2565b604051808215151515815260200191505060405180910390f35b3415610e2357600080fd5b610e4f600480803573ffffffffffffffffffffffffffffffffffffffff169060200190919050506133fe565b604051808215151515815260200191505060405180910390f35b3415610e7457600080fd5b610f25600480803573ffffffffffffffffffffffffffffffffffffffff169060200190919080356000191690602001909190803560ff16906020019091908035600019169060200190919080356000191690602001909190803573ffffffffffffffffffffffffffffffffffffffff169060200190919080356000191690602001909190803560ff1690602001909190803560001916906020019091908035600019169060200190919050506134af565b005b3415610f3257600080fd5b610f486004808035906020019091905050613c32565b005b601f60009054906101000a900460ff1681565b610f65615546565b60038054600181600116156101000203166002900480601f016020809104026020016040519081016040528092919081815260200182805460018160011615610100020316600290048015610ffb5780601f10610fd057610100808354040283529160200191610ffb565b820191906000526020600020905b815481529060010190602001808311610fde57829003601f168201915b5050505050905090565b6000601f60009054906101000a900460ff1615151561102357600080fd5b61102b611dd7565b60008214151561103f5761103e82613d16565b5b6110498383613d29565b905092915050565b61105a33613eb2565b151561106557600080fd5b601a828260405180838380828437820191505092505050908152602001604051809103902060000160009054906101000a900460ff161515156110a757600080fd5b6001601a838360405180838380828437820191505092505050908152602001604051809103902060000160006101000a81548160ff0219169083151502179055506000601a838360405180838380828437820191505092505050908152602001604051809103902060000160016101000a81548160ff0219169083151502179055505050565b6111356126c1565b15151561114157600080fd5b61114a8b6133fe565b151561115557600080fd5b6111628b8b8b8b8b613ef4565b151561116d57600080fd5b600660008773ffffffffffffffffffffffffffffffffffffffff1673ffffffffffffffffffffffffffffffffffffffff16815260200190815260200160002060000160019054906101000a900460ff1680156112155750600660008773ffffffffffffffffffffffffffffffffffffffff1673ffffffffffffffffffffffffffffffffffffffff16815260200190815260200160002060000160029054906101000a900460ff165b151561122057600080fd5b600660008673ffffffffffffffffffffffffffffffffffffffff1673ffffffffffffffffffffffffffffffffffffffff16815260200190815260200160002060000160019054906101000a900460ff1680156112c85750600660008673ffffffffffffffffffffffffffffffffffffffff1673ffffffffffffffffffffffffffffffffffffffff16815260200190815260200160002060000160029054906101000a900460ff165b15156112d357600080fd5b600660008573ffffffffffffffffffffffffffffffffffffffff1673ffffffffffffffffffffffffffffffffffffffff16815260200190815260200160002060000160019054906101000a900460ff16801561137b5750600660008573ffffffffffffffffffffffffffffffffffffffff1673ffffffffffffffffffffffffffffffffffffffff16815260200190815260200160002060000160029054906101000a900460ff165b151561138657600080fd5b600660008473ffffffffffffffffffffffffffffffffffffffff1673ffffffffffffffffffffffffffffffffffffffff16815260200190815260200160002060000160009054906101000a900460ff161580156114305750600660008473ffffffffffffffffffffffffffffffffffffffff1673ffffffffffffffffffffffffffffffffffffffff16815260200190815260200160002060000160019054906101000a900460ff16155b151561143b57600080fd5b600660008373ffffffffffffffffffffffffffffffffffffffff1673ffffffffffffffffffffffffffffffffffffffff16815260200190815260200160002060000160009054906101000a900460ff161580156114e55750600660008373ffffffffffffffffffffffffffffffffffffffff1673ffffffffffffffffffffffffffffffffffffffff16815260200190815260200160002060000160019054906101000a900460ff16155b15156114f057600080fd5b600660008273ffffffffffffffffffffffffffffffffffffffff1673ffffffffffffffffffffffffffffffffffffffff16815260200190815260200160002060000160009054906101000a900460ff1615801561159a5750600660008273ffffffffffffffffffffffffffffffffffffffff1673ffffffffffffffffffffffffffffffffffffffff16815260200190815260200160002060000160019054906101000a900460ff16155b15156115a557600080fd5b85600a60006101000a81548173ffffffffffffffffffffffffffffffffffffffff021916908373ffffffffffffffffffffffffffffffffffffffff16021790555084600b60006101000a81548173ffffffffffffffffffffffffffffffffffffffff021916908373ffffffffffffffffffffffffffffffffffffffff16021790555083600c60006101000a81548173ffffffffffffffffffffffffffffffffffffffff021916908373ffffffffffffffffffffffffffffffffffffffff16021790555082600d60006101000a81548173ffffffffffffffffffffffffffffffffffffffff021916908373ffffffffffffffffffffffffffffffffffffffff16021790555081600e60006101000a81548173ffffffffffffffffffffffffffffffffffffffff021916908373ffffffffffffffffffffffffffffffffffffffff16021790555080600f60006101000a81548173ffffffffffffffffffffffffffffffffffffffff021916908373ffffffffffffffffffffffffffffffffffffffff1602179055508a601060006101000a81548173ffffffffffffffffffffffffffffffffffffffff021916908373ffffffffffffffffffffffffffffffffffffffff1602179055506001601060146101000a81548160ff0219169083151502179055505050505050505050505050565b601d5481565b6000601d54601954601654601254010101905090565b6000601f60009054906101000a900460ff161515156117ce57600080fd5b6117d6611dd7565b6000821415156117ea576117e982613d16565b5b6117f5848484614012565b90509392505050565b6000600460009054906101000a900460ff16905090565b600460009054906101000a900460ff1681565b6000806000806000600860149054906101000a900460ff1660ff1611151561184f57600080fd5b61185c8a8a8a8a8a613ef4565b151561186757600080fd5b60066000600760009054906101000a900473ffffffffffffffffffffffffffffffffffffffff1673ffffffffffffffffffffffffffffffffffffffff1673ffffffffffffffffffffffffffffffffffffffff1681526020019081526020016000209350600092505b60098054905083101561195e578973ffffffffffffffffffffffffffffffffffffffff1660098481548110151561190257fe5b906000526020600020900160009054906101000a900473ffffffffffffffffffffffffffffffffffffffff1673ffffffffffffffffffffffffffffffffffffffff161415151561195157600080fd5b82806001019350506118cf565b6119688a856143e1565b6009805480600101828161197c919061555a565b916000526020600020900160008c909190916101000a81548173ffffffffffffffffffffffffffffffffffffffff021916908373ffffffffffffffffffffffffffffffffffffffff160217905550508415611a08576008601481819054906101000a900460ff168092919060010191906101000a81548160ff021916908360ff16021790555050611a3b565b6008601581819054906101000a900460ff168092919060010191906101000a81548160ff021916908360ff160217905550505b600091508360000160009054906101000a900460ff1615611a6257600360ff169150611a82565b8360000160019054906101000a900460ff1615611a8157600260ff1691505b5b6000905081600860149054906101000a900460ff1660ff16101515611c8d5760019050600060066000600760009054906101000a900473ffffffffffffffffffffffffffffffffffffffff1673ffffffffffffffffffffffffffffffffffffffff1673ffffffffffffffffffffffffffffffffffffffff16815260200190815260200160002060000160026101000a81548160ff0219169083151502179055508360000160009054906101000a900460ff1615611b6957611b64600860009054906101000a900473ffffffffffffffffffffffffffffffffffffffff16614468565b611bad565b8360000160019054906101000a900460ff1615611bac57611bab600860009054906101000a900473ffffffffffffffffffffffffffffffffffffffff1661466a565b5b5b7f25f1f5bf76d36a31ec1b14caf64b580331299fd2037e3589426317b1cdfd4ecb600760009054906101000a900473ffffffffffffffffffffffffffffffffffffffff16600860009054906101000a900473ffffffffffffffffffffffffffffffffffffffff16604051808373ffffffffffffffffffffffffffffffffffffffff1673ffffffffffffffffffffffffffffffffffffffff1681526020018273ffffffffffffffffffffffffffffffffffffffff1673ffffffffffffffffffffffffffffffffffffffff1681526020019250505060405180910390a1611cae565b81600860159054906101000a900460ff1660ff16101515611cad57600190505b5b8015611d7f576000600760006101000a81548173ffffffffffffffffffffffffffffffffffffffff021916908373ffffffffffffffffffffffffffffffffffffffff1602179055506000600860006101000a81548173ffffffffffffffffffffffffffffffffffffffff021916908373ffffffffffffffffffffffffffffffffffffffff1602179055506000600860146101000a81548160ff021916908360ff1602179055506000600860156101000a81548160ff021916908360ff16021790555060096000611d7e9190615586565b5b50505050505050505050565b611d943361486c565b1515611d9f57600080fd5b601d548111151515611db057600080fd5b611dc581601d546148ae90919063ffffffff16565b601d81905550611dd4816148c7565b50565b611de833611de361491d565b614925565b565b601b5481565b611df933613eb2565b1515611e0457600080fd5b611e0c61496d565b8060195410151515611e1d57600080fd5b611e32816019546148ae90919063ffffffff16565b6019819055507f767ac084c85ccc4567022083b0e326161cf70a2e0386ec6e26385c8063325e44816040518082815260200191505060405180910390a150565b611e7b3361499f565b1515611e8657600080fd5b6001601f60006101000a81548160ff0219169083151502179055507fa8cab3d1893ed53071b052fafa843143492f25d1d6b0170d460789f7ab1954be60405160405180910390a1565b60185481565b6000601f60009054906101000a900460ff16151515611ef357600080fd5b611efb611dd7565b600082141515611f0f57611f0e82613d16565b5b611f1983836149b1565b905092915050565b60008060008373ffffffffffffffffffffffffffffffffffffffff1673ffffffffffffffffffffffffffffffffffffffff168152602001908152602001600020549050919050565b81818080601f016020809104026020016040519081016040528093929190818152602001838380828437820191505050505050601a816040518082805190602001908083835b602083101515611fd45780518252602082019150602081019050602083039250611faf565b6001836020036101000a038019825116818451168082178552505050505050905001915050908152602001604051809103902060000160009054906101000a900460ff16801561209d5750601a816040518082805190602001908083835b6020831015156120575780518252602082019150602081019050602083039250612032565b6001836020036101000a038019825116818451168082178552505050505050905001915050908152602001604051809103902060000160019054906101000a900460ff16155b15156120a857600080fd5b6120b184614c42565b6001601a848460405180838380828437820191505092505050908152602001604051809103902060000160016101000a81548160ff02191690831515021790555061210784601954614dd790919063ffffffff16565b60198190555061212284601854614dd790919063ffffffff16565b6018819055503373ffffffffffffffffffffffffffffffffffffffff167f0bd10d08cdd688ae27d8149d34aea2ddb78c6e0116355640cf1af79a2c9ab39485858560405180848152602001806020018281038252848482818152602001925080828437820191505094505050505060405180910390a250505050565b60006121a86126c1565b1515156121b457600080fd5b600660008473ffffffffffffffffffffffffffffffffffffffff1673ffffffffffffffffffffffffffffffffffffffff16815260200190815260200160002090506122028888888888613ef4565b151561220d57600080fd5b61221788826143e1565b600660008373ffffffffffffffffffffffffffffffffffffffff1673ffffffffffffffffffffffffffffffffffffffff16815260200190815260200160002060000160009054906101000a900460ff161580156122c15750600660008373ffffffffffffffffffffffffffffffffffffffff1673ffffffffffffffffffffffffffffffffffffffff16815260200190815260200160002060000160019054906101000a900460ff16155b15156122cc57600080fd5b82600760006101000a81548173ffffffffffffffffffffffffffffffffffffffff021916908373ffffffffffffffffffffffffffffffffffffffff16021790555081600860006101000a81548173ffffffffffffffffffffffffffffffffffffffff021916908373ffffffffffffffffffffffffffffffffffffffff1602179055506001600860146101000a81548160ff021916908360ff1602179055506000600860156101000a81548160ff021916908360ff160217905550600960006123949190615586565b600980548060010182816123a8919061555a565b916000526020600020900160008a909190916101000a81548173ffffffffffffffffffffffffffffffffffffffff021916908373ffffffffffffffffffffffffffffffffffffffff160217905550505050505050505050565b600080600061240f3361486c565b151561241a57600080fd5b61242261491d565b925082601b541115151561243557600080fd5b61244a601b54846148ae90919063ffffffff16565b915081601e60008673ffffffffffffffffffffffffffffffffffffffff1673ffffffffffffffffffffffffffffffffffffffff168152602001908152602001600020541115151561249a57600080fd5b6124a384614df5565b90506124ba81601c54614dd790919063ffffffff16565b601c819055506124d581601d54614dd790919063ffffffff16565b601d819055508373ffffffffffffffffffffffffffffffffffffffff167f8aec0ce3dadffacf4b7a963e0fed1ff2e6151b4c95d4a65acafa9d1299630402826040518082815260200191505060405180910390a250505050565b600080600061253d336133fe565b151561254857600080fd5b8491508173ffffffffffffffffffffffffffffffffffffffff166370a08231306040518263ffffffff167c0100000000000000000000000000000000000000000000000000000000028152600401808273ffffffffffffffffffffffffffffffffffffffff1673ffffffffffffffffffffffffffffffffffffffff168152602001915050602060405180830381600087803b15156125e557600080fd5b5af115156125f257600080fd5b5050506040518051905090508173ffffffffffffffffffffffffffffffffffffffff1663a9059cbb85836040518363ffffffff167c0100000000000000000000000000000000000000000000000000000000028152600401808373ffffffffffffffffffffffffffffffffffffffff1673ffffffffffffffffffffffffffffffffffffffff16815260200182815260200192505050602060405180830381600087803b15156126a057600080fd5b5af115156126ad57600080fd5b505050604051805190509250505092915050565b600080600860149054906101000a900460ff1660ff1611806126ef5750601060149054906101000a900460ff165b905090565b6000600660008373ffffffffffffffffffffffffffffffffffffffff1673ffffffffffffffffffffffffffffffffffffffff16815260200190815260200160002060000160019054906101000a900460ff16801561279e5750600660008373ffffffffffffffffffffffffffffffffffffffff1673ffffffffffffffffffffffffffffffffffffffff16815260200190815260200160002060000160029054906101000a900460ff165b9050919050565b6000806127b06133e2565b15156127bb57600080fd5b6127c433614f32565b15156127cf57600080fd5b600091505b601580549050821015612863573373ffffffffffffffffffffffffffffffffffffffff1660158381548110151561280757fe5b906000526020600020900160009054906101000a900473ffffffffffffffffffffffffffffffffffffffff1673ffffffffffffffffffffffffffffffffffffffff161415151561285657600080fd5b81806001019250506127d4565b60158054806001018281612877919061555a565b9160005260206000209001600033909190916101000a81548173ffffffffffffffffffffffffffffffffffffffff021916908373ffffffffffffffffffffffffffffffffffffffff160217905550508215612903576014600081819054906101000a900460ff168092919060010191906101000a81548160ff021916908360ff16021790555050612936565b6014600181819054906101000a900460ff168092919060010191906101000a81548160ff021916908360ff160217905550505b60009050600360ff16601460009054906101000a900460ff1660ff161015156129b85760019050612974601354601254614dd790919063ffffffff16565b6012819055507f06acbfb32bcf8383f3b0a768b70ac9ec234ea0f2d3b9c77fa6a2de69b919aad16013546040518082815260200191505060405180910390a16129dd565b600360ff16601460019054906101000a900460ff1660ff161015156129dc57600190505b5b8015612a325760006013819055506000601460006101000a81548160ff021916908360ff1602179055506000601460016101000a81548160ff021916908360ff16021790555060156000612a319190615586565b5b505050565b612a3f615546565b60028054600181600116156101000203166002900480601f016020809104026020016040519081016040528092919081815260200182805460018160011615610100020316600290048015612ad55780601f10612aaa57610100808354040283529160200191612ad5565b820191906000526020600020905b815481529060010190602001808311612ab857829003601f168201915b5050505050905090565b612ae833614f74565b1515612af357600080fd5b612afc81613d16565b601760008373ffffffffffffffffffffffffffffffffffffffff1673ffffffffffffffffffffffffffffffffffffffff16815260200190815260200160002060030160009054906101000a900460ff16151515612b5857600080fd5b80601760008473ffffffffffffffffffffffffffffffffffffffff1673ffffffffffffffffffffffffffffffffffffffff168152602001908152602001600020600001819055506001601760008473ffffffffffffffffffffffffffffffffffffffff1673ffffffffffffffffffffffffffffffffffffffff16815260200190815260200160002060010160006101000a81548160ff021916908360ff1602179055506000601760008473ffffffffffffffffffffffffffffffffffffffff1673ffffffffffffffffffffffffffffffffffffffff16815260200190815260200160002060010160016101000a81548160ff021916908360ff160217905550601760008373ffffffffffffffffffffffffffffffffffffffff1673ffffffffffffffffffffffffffffffffffffffff1681526020019081526020016000206002016000612ca59190615586565b601760008373ffffffffffffffffffffffffffffffffffffffff1673ffffffffffffffffffffffffffffffffffffffff1681526020019081526020016000206002018054806001018281612cf9919061555a565b9160005260206000209001600033909190916101000a81548173ffffffffffffffffffffffffffffffffffffffff021916908373ffffffffffffffffffffffffffffffffffffffff160217905550506001601760008473ffffffffffffffffffffffffffffffffffffffff1673ffffffffffffffffffffffffffffffffffffffff16815260200190815260200160002060030160006101000a81548160ff0219169083151502179055505050565b6000601f60009054906101000a900460ff16151515612dc557600080fd5b612dcd611dd7565b600082141515612de157612de082613d16565b5b612deb8383614fb6565b905092915050565b60165481565b612e02336133fe565b1515612e0d57600080fd5b8073ffffffffffffffffffffffffffffffffffffffff166108fc3073ffffffffffffffffffffffffffffffffffffffff16319081150290604051600060405180830381858888f193505050501515612e6457600080fd5b50565b60028054600181600116156101000203166002900480601f016020809104026020016040519081016040528092919081815260200182805460018160011615610100020316600290048015612efd5780601f10612ed257610100808354040283529160200191612efd565b820191906000526020600020905b815481529060010190602001808311612ee057829003601f168201915b505050505081565b601c5481565b60125481565b6000806000612f1f33614f74565b1515612f2a57600080fd5b601760008673ffffffffffffffffffffffffffffffffffffffff1673ffffffffffffffffffffffffffffffffffffffff16815260200190815260200160002092508260030160009054906101000a900460ff161515612f8857600080fd5b600091505b8260020180549050821015613020573373ffffffffffffffffffffffffffffffffffffffff168360020183815481101515612fc457fe5b906000526020600020900160009054906101000a900473ffffffffffffffffffffffffffffffffffffffff1673ffffffffffffffffffffffffffffffffffffffff161415151561301357600080fd5b8180600101925050612f8d565b826002018054806001018281613036919061555a565b9160005260206000209001600033909190916101000a81548173ffffffffffffffffffffffffffffffffffffffff021916908373ffffffffffffffffffffffffffffffffffffffff1602179055505083156130c45782600101600081819054906101000a900460ff168092919060010191906101000a81548160ff021916908360ff160217905550506130f9565b82600101600181819054906101000a900460ff168092919060010191906101000a81548160ff021916908360ff160217905550505b60009050600260ff168360010160009054906101000a900460ff1660ff161015156131c357600190506131308584600001546151f9565b6131498360000154601654614dd790919063ffffffff16565b6016819055507fb649c98f58055c520df0dcb5709eff2e931217ff2fb1e21376130d31bbb1c0af858460000154604051808373ffffffffffffffffffffffffffffffffffffffff1673ffffffffffffffffffffffffffffffffffffffff1681526020018281526020019250505060405180910390a16131ea565b600260ff168360010160019054906101000a900460ff1660ff161015156131e957600190505b5b8015613264576000836000018190555060008360010160006101000a81548160ff021916908360ff16021790555060008360010160016101000a81548160ff021916908360ff1602179055508260020160006132469190615586565b60008360030160006101000a81548160ff0219169083151502179055505b5050505050565b60195481565b60038054600181600116156101000203166002900480601f0160208091040260200160405190810160405280929190818152602001828054600181600116156101000203166002900480156133075780601f106132dc57610100808354040283529160200191613307565b820191906000526020600020905b8154815290600101906020018083116132ea57829003601f168201915b505050505081565b6000601f60009054906101000a900460ff1615151561332d57600080fd5b613335611dd7565b6000821415156133495761334882613d16565b5b61335383836152fe565b905092915050565b6000600160008473ffffffffffffffffffffffffffffffffffffffff1673ffffffffffffffffffffffffffffffffffffffff16815260200190815260200160002060008373ffffffffffffffffffffffffffffffffffffffff1673ffffffffffffffffffffffffffffffffffffffff16815260200190815260200160002054905092915050565b600080601460009054906101000a900460ff1660ff1611905090565b6000600660008373ffffffffffffffffffffffffffffffffffffffff1673ffffffffffffffffffffffffffffffffffffffff16815260200190815260200160002060000160009054906101000a900460ff1680156134a85750600660008373ffffffffffffffffffffffffffffffffffffffff1673ffffffffffffffffffffffffffffffffffffffff16815260200190815260200160002060000160029054906101000a900460ff165b9050919050565b601060149054906101000a900460ff1615156134ca57600080fd5b8973ffffffffffffffffffffffffffffffffffffffff16601060009054906101000a900473ffffffffffffffffffffffffffffffffffffffff1673ffffffffffffffffffffffffffffffffffffffff161415151561352757600080fd5b8473ffffffffffffffffffffffffffffffffffffffff16601060009054906101000a900473ffffffffffffffffffffffffffffffffffffffff1673ffffffffffffffffffffffffffffffffffffffff161415151561358457600080fd5b6135918a8a8a8a8a613ef4565b151561359c57600080fd5b6135a98585858585613ef4565b15156135b457600080fd5b600060066000600a60009054906101000a900473ffffffffffffffffffffffffffffffffffffffff1673ffffffffffffffffffffffffffffffffffffffff1673ffffffffffffffffffffffffffffffffffffffff16815260200190815260200160002060000160026101000a81548160ff021916908315150217905550600060066000600b60009054906101000a900473ffffffffffffffffffffffffffffffffffffffff1673ffffffffffffffffffffffffffffffffffffffff1673ffffffffffffffffffffffffffffffffffffffff16815260200190815260200160002060000160026101000a81548160ff021916908315150217905550600060066000600c60009054906101000a900473ffffffffffffffffffffffffffffffffffffffff1673ffffffffffffffffffffffffffffffffffffffff1673ffffffffffffffffffffffffffffffffffffffff16815260200190815260200160002060000160026101000a81548160ff021916908315150217905550613756600d60009054906101000a900473ffffffffffffffffffffffffffffffffffffffff1661466a565b613781600e60009054906101000a900473ffffffffffffffffffffffffffffffffffffffff1661466a565b6137ac600f60009054906101000a900473ffffffffffffffffffffffffffffffffffffffff1661466a565b7f25f1f5bf76d36a31ec1b14caf64b580331299fd2037e3589426317b1cdfd4ecb600a60009054906101000a900473ffffffffffffffffffffffffffffffffffffffff16600d60009054906101000a900473ffffffffffffffffffffffffffffffffffffffff16604051808373ffffffffffffffffffffffffffffffffffffffff1673ffffffffffffffffffffffffffffffffffffffff1681526020018273ffffffffffffffffffffffffffffffffffffffff1673ffffffffffffffffffffffffffffffffffffffff1681526020019250505060405180910390a17f25f1f5bf76d36a31ec1b14caf64b580331299fd2037e3589426317b1cdfd4ecb600b60009054906101000a900473ffffffffffffffffffffffffffffffffffffffff16600e60009054906101000a900473ffffffffffffffffffffffffffffffffffffffff16604051808373ffffffffffffffffffffffffffffffffffffffff1673ffffffffffffffffffffffffffffffffffffffff1681526020018273ffffffffffffffffffffffffffffffffffffffff1673ffffffffffffffffffffffffffffffffffffffff1681526020019250505060405180910390a17f25f1f5bf76d36a31ec1b14caf64b580331299fd2037e3589426317b1cdfd4ecb600c60009054906101000a900473ffffffffffffffffffffffffffffffffffffffff16600f60009054906101000a900473ffffffffffffffffffffffffffffffffffffffff16604051808373ffffffffffffffffffffffffffffffffffffffff1673ffffffffffffffffffffffffffffffffffffffff1681526020018273ffffffffffffffffffffffffffffffffffffffff1673ffffffffffffffffffffffffffffffffffffffff1681526020019250505060405180910390a16000600a60006101000a81548173ffffffffffffffffffffffffffffffffffffffff021916908373ffffffffffffffffffffffffffffffffffffffff1602179055506000600b60006101000a81548173ffffffffffffffffffffffffffffffffffffffff021916908373ffffffffffffffffffffffffffffffffffffffff1602179055506000600c60006101000a81548173ffffffffffffffffffffffffffffffffffffffff021916908373ffffffffffffffffffffffffffffffffffffffff1602179055506000600d60006101000a81548173ffffffffffffffffffffffffffffffffffffffff021916908373ffffffffffffffffffffffffffffffffffffffff1602179055506000600e60006101000a81548173ffffffffffffffffffffffffffffffffffffffff021916908373ffffffffffffffffffffffffffffffffffffffff1602179055506000600f60006101000a81548173ffffffffffffffffffffffffffffffffffffffff021916908373ffffffffffffffffffffffffffffffffffffffff1602179055506000601060006101000a81548173ffffffffffffffffffffffffffffffffffffffff021916908373ffffffffffffffffffffffffffffffffffffffff1602179055506000601060146101000a81548160ff02191690831515021790555050505050505050505050565b613c3a6133e2565b151515613c4657600080fd5b613c4f33614f32565b1515613c5a57600080fd5b613c6381613d16565b806013819055506001601460006101000a81548160ff021916908360ff1602179055506000601460016101000a81548160ff021916908360ff16021790555060156000613cb09190615586565b60158054806001018281613cc4919061555a565b9160005260206000209001600033909190916101000a81548173ffffffffffffffffffffffffffffffffffffffff021916908373ffffffffffffffffffffffffffffffffffffffff1602179055505050565b60018110151515613d2657600080fd5b50565b6000808214158015613db857506000600160003373ffffffffffffffffffffffffffffffffffffffff1673ffffffffffffffffffffffffffffffffffffffff16815260200190815260200160002060008573ffffffffffffffffffffffffffffffffffffffff1673ffffffffffffffffffffffffffffffffffffffff1681526020019081526020016000205414155b15613dc257600080fd5b81600160003373ffffffffffffffffffffffffffffffffffffffff1673ffffffffffffffffffffffffffffffffffffffff16815260200190815260200160002060008573ffffffffffffffffffffffffffffffffffffffff1673ffffffffffffffffffffffffffffffffffffffff168152602001908152602001600020819055508273ffffffffffffffffffffffffffffffffffffffff163373ffffffffffffffffffffffffffffffffffffffff167f8c5be1e5ebec7d5bd14f71427d1e84f3dd0314c0f7b2291e5b200ac8c7c3b925846040518082815260200191505060405180910390a36001905092915050565b6000601f60009054906101000a900460ff16151515613ed057600080fd5b613ed86126c1565b151515613ee457600080fd5b613eed826126f4565b9050919050565b600060116000866000191660001916815260200190815260200160002060009054906101000a900460ff16151515613f2b57600080fd5b600160116000876000191660001916815260200190815260200160002060006101000a81548160ff0219169083151502179055508573ffffffffffffffffffffffffffffffffffffffff16600186868686604051600081526020016040526040518085600019166000191681526020018460ff1660ff1681526020018360001916600019168152602001826000191660001916815260200194505050505060206040516020810390808403906000865af11515613fe757600080fd5b50506020604051035173ffffffffffffffffffffffffffffffffffffffff1614905095945050505050565b6000604460003690501015151561402857600080fd5b600073ffffffffffffffffffffffffffffffffffffffff168373ffffffffffffffffffffffffffffffffffffffff161415151561406457600080fd5b6000808573ffffffffffffffffffffffffffffffffffffffff1673ffffffffffffffffffffffffffffffffffffffff1681526020019081526020016000205482111515156140b157600080fd5b600160008573ffffffffffffffffffffffffffffffffffffffff1673ffffffffffffffffffffffffffffffffffffffff16815260200190815260200160002060003373ffffffffffffffffffffffffffffffffffffffff1673ffffffffffffffffffffffffffffffffffffffff16815260200190815260200160002054821115151561413c57600080fd5b61418d826000808773ffffffffffffffffffffffffffffffffffffffff1673ffffffffffffffffffffffffffffffffffffffff168152602001908152602001600020546148ae90919063ffffffff16565b6000808673ffffffffffffffffffffffffffffffffffffffff1673ffffffffffffffffffffffffffffffffffffffff16815260200190815260200160002081905550614220826000808673ffffffffffffffffffffffffffffffffffffffff1673ffffffffffffffffffffffffffffffffffffffff16815260200190815260200160002054614dd790919063ffffffff16565b6000808573ffffffffffffffffffffffffffffffffffffffff1673ffffffffffffffffffffffffffffffffffffffff168152602001908152602001600020819055506142f182600160008773ffffffffffffffffffffffffffffffffffffffff1673ffffffffffffffffffffffffffffffffffffffff16815260200190815260200160002060003373ffffffffffffffffffffffffffffffffffffffff1673ffffffffffffffffffffffffffffffffffffffff168152602001908152602001600020546148ae90919063ffffffff16565b600160008673ffffffffffffffffffffffffffffffffffffffff1673ffffffffffffffffffffffffffffffffffffffff16815260200190815260200160002060003373ffffffffffffffffffffffffffffffffffffffff1673ffffffffffffffffffffffffffffffffffffffff168152602001908152602001600020819055508273ffffffffffffffffffffffffffffffffffffffff168473ffffffffffffffffffffffffffffffffffffffff167fddf252ad1be2c89b69c2b068fc378daa952ba7f163c4a11628f55a4df523b3ef846040518082815260200191505060405180910390a3600190509392505050565b8060000160029054906101000a900460ff1615156143fe57600080fd5b8060000160009054906101000a900460ff161561442e5761441e826133fe565b151561442957600080fd5b614464565b8060000160019054906101000a900460ff161561445e5761444e826126f4565b151561445957600080fd5b614463565b600080fd5b5b5050565b600073ffffffffffffffffffffffffffffffffffffffff168173ffffffffffffffffffffffffffffffffffffffff16141515156144a157fe5b600660008273ffffffffffffffffffffffffffffffffffffffff1673ffffffffffffffffffffffffffffffffffffffff16815260200190815260200160002060000160009054906101000a900460ff1615801561454b5750600660008273ffffffffffffffffffffffffffffffffffffffff1673ffffffffffffffffffffffffffffffffffffffff16815260200190815260200160002060000160029054906101000a900460ff16155b151561455657600080fd5b6001600660008373ffffffffffffffffffffffffffffffffffffffff1673ffffffffffffffffffffffffffffffffffffffff16815260200190815260200160002060000160006101000a81548160ff0219169083151502179055506000600660008373ffffffffffffffffffffffffffffffffffffffff1673ffffffffffffffffffffffffffffffffffffffff16815260200190815260200160002060000160016101000a81548160ff0219169083151502179055506001600660008373ffffffffffffffffffffffffffffffffffffffff1673ffffffffffffffffffffffffffffffffffffffff16815260200190815260200160002060000160026101000a81548160ff02191690831515021790555050565b600073ffffffffffffffffffffffffffffffffffffffff168173ffffffffffffffffffffffffffffffffffffffff16141515156146a357fe5b600660008273ffffffffffffffffffffffffffffffffffffffff1673ffffffffffffffffffffffffffffffffffffffff16815260200190815260200160002060000160019054906101000a900460ff1615801561474d5750600660008273ffffffffffffffffffffffffffffffffffffffff1673ffffffffffffffffffffffffffffffffffffffff16815260200190815260200160002060000160029054906101000a900460ff16155b151561475857600080fd5b6000600660008373ffffffffffffffffffffffffffffffffffffffff1673ffffffffffffffffffffffffffffffffffffffff16815260200190815260200160002060000160006101000a81548160ff0219169083151502179055506001600660008373ffffffffffffffffffffffffffffffffffffffff1673ffffffffffffffffffffffffffffffffffffffff16815260200190815260200160002060000160016101000a81548160ff0219169083151502179055506001600660008373ffffffffffffffffffffffffffffffffffffffff1673ffffffffffffffffffffffffffffffffffffffff16815260200190815260200160002060000160026101000a81548160ff02191690831515021790555050565b6000601f60009054906101000a900460ff1615151561488a57600080fd5b6148926126c1565b15151561489e57600080fd5b6148a7826126f4565b9050919050565b60008282111515156148bc57fe5b818303905092915050565b601f60009054906101000a900460ff161515156148e357600080fd5b7f767ac084c85ccc4567022083b0e326161cf70a2e0386ec6e26385c8063325e44816040518082815260200191505060405180910390a150565b600043905090565b80601e60008473ffffffffffffffffffffffffffffffffffffffff1673ffffffffffffffffffffffffffffffffffffffff168152602001908152602001600020819055505050565b614976336126f4565b151561498157600080fd5b601f60009054906101000a900460ff1615151561499d57600080fd5b565b60006149aa826133fe565b9050919050565b600080600160003373ffffffffffffffffffffffffffffffffffffffff1673ffffffffffffffffffffffffffffffffffffffff16815260200190815260200160002060008573ffffffffffffffffffffffffffffffffffffffff1673ffffffffffffffffffffffffffffffffffffffff16815260200190815260200160002054905080831115614ac2576000600160003373ffffffffffffffffffffffffffffffffffffffff1673ffffffffffffffffffffffffffffffffffffffff16815260200190815260200160002060008673ffffffffffffffffffffffffffffffffffffffff1673ffffffffffffffffffffffffffffffffffffffff16815260200190815260200160002081905550614b56565b614ad583826148ae90919063ffffffff16565b600160003373ffffffffffffffffffffffffffffffffffffffff1673ffffffffffffffffffffffffffffffffffffffff16815260200190815260200160002060008673ffffffffffffffffffffffffffffffffffffffff1673ffffffffffffffffffffffffffffffffffffffff168152602001908152602001600020819055505b8373ffffffffffffffffffffffffffffffffffffffff163373ffffffffffffffffffffffffffffffffffffffff167f8c5be1e5ebec7d5bd14f71427d1e84f3dd0314c0f7b2291e5b200ac8c7c3b925600160003373ffffffffffffffffffffffffffffffffffffffff1673ffffffffffffffffffffffffffffffffffffffff16815260200190815260200160002060008873ffffffffffffffffffffffffffffffffffffffff1673ffffffffffffffffffffffffffffffffffffffff168152602001908152602001600020546040518082815260200191505060405180910390a3600191505092915050565b6000601f60009054906101000a900460ff16151515614c6057600080fd5b600082111515614c6f57600080fd5b6000803373ffffffffffffffffffffffffffffffffffffffff1673ffffffffffffffffffffffffffffffffffffffff168152602001908152602001600020549050818110151515614cbf57600080fd5b614d10826000803373ffffffffffffffffffffffffffffffffffffffff1673ffffffffffffffffffffffffffffffffffffffff168152602001908152602001600020546148ae90919063ffffffff16565b6000803373ffffffffffffffffffffffffffffffffffffffff1673ffffffffffffffffffffffffffffffffffffffff16815260200190815260200160002081905550614d67826016546148ae90919063ffffffff16565b601681905550600073ffffffffffffffffffffffffffffffffffffffff163373ffffffffffffffffffffffffffffffffffffffff167fddf252ad1be2c89b69c2b068fc378daa952ba7f163c4a11628f55a4df523b3ef846040518082815260200191505060405180910390a35050565b6000808284019050838110151515614deb57fe5b8091505092915050565b600080601f60009054906101000a900460ff16151515614e1457600080fd5b6000808473ffffffffffffffffffffffffffffffffffffffff1673ffffffffffffffffffffffffffffffffffffffff168152602001908152602001600020549050600081111515614e6457600080fd5b60008060008573ffffffffffffffffffffffffffffffffffffffff1673ffffffffffffffffffffffffffffffffffffffff16815260200190815260200160002081905550614ebd816016546148ae90919063ffffffff16565b601681905550600073ffffffffffffffffffffffffffffffffffffffff168373ffffffffffffffffffffffffffffffffffffffff167fddf252ad1be2c89b69c2b068fc378daa952ba7f163c4a11628f55a4df523b3ef836040518082815260200191505060405180910390a380915050919050565b6000601f60009054906101000a900460ff16151515614f5057600080fd5b614f586126c1565b151515614f6457600080fd5b614f6d826133fe565b9050919050565b6000601f60009054906101000a900460ff16151515614f9257600080fd5b614f9a6126c1565b151515614fa657600080fd5b614faf826126f4565b9050919050565b60006044600036905010151515614fcc57600080fd5b600082111515614fdb57600080fd5b600073ffffffffffffffffffffffffffffffffffffffff168373ffffffffffffffffffffffffffffffffffffffff161415151561501757600080fd5b6000803373ffffffffffffffffffffffffffffffffffffffff1673ffffffffffffffffffffffffffffffffffffffff16815260200190815260200160002054821115151561506457600080fd5b6150b5826000803373ffffffffffffffffffffffffffffffffffffffff1673ffffffffffffffffffffffffffffffffffffffff168152602001908152602001600020546148ae90919063ffffffff16565b6000803373ffffffffffffffffffffffffffffffffffffffff1673ffffffffffffffffffffffffffffffffffffffff16815260200190815260200160002081905550615148826000808673ffffffffffffffffffffffffffffffffffffffff1673ffffffffffffffffffffffffffffffffffffffff16815260200190815260200160002054614dd790919063ffffffff16565b6000808573ffffffffffffffffffffffffffffffffffffffff1673ffffffffffffffffffffffffffffffffffffffff168152602001908152602001600020819055508273ffffffffffffffffffffffffffffffffffffffff163373ffffffffffffffffffffffffffffffffffffffff167fddf252ad1be2c89b69c2b068fc378daa952ba7f163c4a11628f55a4df523b3ef846040518082815260200191505060405180910390a36001905092915050565b615202816154fa565b615253816000808573ffffffffffffffffffffffffffffffffffffffff1673ffffffffffffffffffffffffffffffffffffffff16815260200190815260200160002054614dd790919063ffffffff16565b6000808473ffffffffffffffffffffffffffffffffffffffff1673ffffffffffffffffffffffffffffffffffffffff168152602001908152602001600020819055508173ffffffffffffffffffffffffffffffffffffffff163073ffffffffffffffffffffffffffffffffffffffff167fddf252ad1be2c89b69c2b068fc378daa952ba7f163c4a11628f55a4df523b3ef836040518082815260200191505060405180910390a35050565b600061538f82600160003373ffffffffffffffffffffffffffffffffffffffff1673ffffffffffffffffffffffffffffffffffffffff16815260200190815260200160002060008673ffffffffffffffffffffffffffffffffffffffff1673ffffffffffffffffffffffffffffffffffffffff16815260200190815260200160002054614dd790919063ffffffff16565b600160003373ffffffffffffffffffffffffffffffffffffffff1673ffffffffffffffffffffffffffffffffffffffff16815260200190815260200160002060008573ffffffffffffffffffffffffffffffffffffffff1673ffffffffffffffffffffffffffffffffffffffff168152602001908152602001600020819055508273ffffffffffffffffffffffffffffffffffffffff163373ffffffffffffffffffffffffffffffffffffffff167f8c5be1e5ebec7d5bd14f71427d1e84f3dd0314c0f7b2291e5b200ac8c7c3b925600160003373ffffffffffffffffffffffffffffffffffffffff1673ffffffffffffffffffffffffffffffffffffffff16815260200190815260200160002060008773ffffffffffffffffffffffffffffffffffffffff1673ffffffffffffffffffffffffffffffffffffffff168152602001908152602001600020546040518082815260200191505060405180910390a36001905092915050565b6155026133e2565b15151561550e57600080fd5b61551781613d16565b806012541015151561552857600080fd5b61553d816012546148ae90919063ffffffff16565b60128190555050565b602060405190810160405280600081525090565b8154818355818115116155815781836000526020600020918201910161558091906155a7565b5b505050565b50805460008255906000526020600020908101906155a491906155a7565b50565b6155c991905b808211156155c55760008160009055506001016155ad565b5090565b905600a165627a7a72305820425ab9de6b60f163db12fbcd76228ea8195a4ece2ca1b1c0d37ad01b1b3636d40029",
  "source": "pragma solidity ^0.4.21;\r\nimport \"./CacaoLibrary.sol\";\r\nimport \"./StandardToken.sol\";\r\nimport \"./CacaoKeyRing.sol\";\r\nimport \"./CacaoCreation.sol\";\r\nimport \"./CacaoDistribution.sol\";\r\nimport \"./CacaoDestruction.sol\";\r\nimport \"./CacaoRescue.sol\";\r\nimport \"./Freezable.sol\";\r\n\r\n/// @title Cacao Contract\r\n/// @author 0w3w\r\ncontract Cacao is StandardToken, CacaoKeyRing, CacaoCreation, CacaoDistribution, CacaoDestruction, CacaoRescue, Freezable {\r\n    using CacaoLibrary for uint256;\r\n\r\n    function Cacao (\r\n        address _creatorAddress1,\r\n        address _creatorAddress2,\r\n        address _creatorAddress3,\r\n        address _creatorAddress4,\r\n        address _distributionAddress1,\r\n        address _distributionAddress2,\r\n        address _distributionAddress3\r\n    ) CacaoKeyRing(\r\n        msg.sender,\r\n        _creatorAddress1,\r\n        _creatorAddress2,\r\n        _creatorAddress3,\r\n        _creatorAddress4,\r\n        _distributionAddress1,\r\n        _distributionAddress2,\r\n        _distributionAddress3\r\n    ) public {\r\n        _symbol = \"CAO\";\r\n        _name = \"Cacao\";\r\n        _decimals = 3;\r\n        _totalSupply = 0;\r\n    }\r\n\r\n    /// @notice The fallback funtion is disabled.\r\n    function() public {\r\n        revert();\r\n    }\r\n\r\n    /*\r\n        StandardToken\r\n    */\r\n\r\n    function totalSupply() public view returns (uint256) {\r\n        return cacaosInLimbo + cacaosInCirculation + cacaosInPurgatory + cacaosInHell;\r\n    }\r\n\r\n    function transfer(address _to, uint256 _value) public notFrozen returns (bool) {\r\n        registerTransaction();\r\n        if (_value != 0) {\r\n            _value.requireValidAmount();\r\n        }\r\n        return super.transfer(_to, _value);\r\n    }   \r\n    function transferFrom(address _from, address _to, uint256 _value) public notFrozen returns (bool) {\r\n        registerTransaction();\r\n        if (_value != 0) {\r\n            _value.requireValidAmount();\r\n        }\r\n        return super.transferFrom(_from, _to, _value);\r\n    }   \r\n    function approve(address _spender, uint256 _value) public notFrozen returns (bool) {\r\n        registerTransaction();\r\n        if (_value != 0) {\r\n            _value.requireValidAmount();\r\n        }\r\n        return super.approve(_spender, _value);\r\n    }   \r\n    function increaseApproval(address _spender, uint256 _addedValue) public notFrozen returns (bool success) {\r\n        registerTransaction();\r\n        if (_addedValue != 0) {\r\n            _addedValue.requireValidAmount();\r\n        }\r\n        return super.increaseApproval(_spender, _addedValue);\r\n    }   \r\n    function decreaseApproval(address _spender, uint256 _subtractedValue) public notFrozen returns (bool success) {\r\n        registerTransaction();\r\n        if (_subtractedValue != 0) {\r\n            _subtractedValue.requireValidAmount();\r\n        }\r\n        return super.decreaseApproval(_spender, _subtractedValue);\r\n    }\r\n\r\n    /*\r\n        CacaoCreation\r\n    */\r\n\r\n    function canCreate(address _address) internal notFrozen returns (bool _isValid) {\r\n        require(!isReplacingAddresses());\r\n        return isCreator(_address);\r\n    }\r\n\r\n    /*\r\n        CacaoDistribution\r\n    */\r\n\r\n    function canDistribute(address _address) internal notFrozen returns (bool _isValid) {\r\n        require(!isReplacingAddresses());\r\n        return isDistributor(_address);\r\n    }\r\n    \r\n    function onDistribute(address _to, uint256 _ammount) internal {\r\n        draw(_ammount);\r\n        balances[_to] = balances[_to].add(_ammount);\r\n        emit Transfer(address(this), _to, _ammount);\r\n    }\r\n    /*\r\n        CacaoDestruction\r\n    */\r\n\r\n    function canDestruct(address _sender) internal notFrozen returns (bool result) {\r\n        require(!isReplacingAddresses());\r\n        return isDistributor(_sender);\r\n    }\r\n\r\n    function onBurn(uint256 _ammount) internal notFrozen {\r\n        require(_ammount > 0);\r\n        uint256 fromBalance = balances[msg.sender];\r\n        require(fromBalance >= _ammount);\r\n        balances[msg.sender] = balances[msg.sender].sub(_ammount);\r\n        cacaosInCirculation = cacaosInCirculation.sub(_ammount);\r\n        emit Transfer(msg.sender, address(0), _ammount);\r\n    }\r\n    \r\n    function onObliterate() internal onlyDistributor notFrozen {\r\n    }\r\n\r\n    /*\r\n        CacaoRescue\r\n    */\r\n    \r\n    function canRescue(address _address) internal notFrozen returns (bool result) {\r\n        require(!isReplacingAddresses());\r\n        return isDistributor(_address);\r\n    }\r\n\r\n    function onRescue(address _address) internal notFrozen returns (uint256 ammount) {\r\n        uint256 rescuedAmmount = balances[_address];\r\n        require(rescuedAmmount > 0);\r\n        balances[_address] = 0;\r\n        cacaosInCirculation = cacaosInCirculation.sub(rescuedAmmount);\r\n        emit Transfer(_address, address(0), rescuedAmmount);\r\n        return rescuedAmmount;\r\n    }\r\n\r\n    function onObliterateRescued(uint256 _ammount) internal notFrozen {\r\n        emit Obliterated(_ammount);\r\n    }\r\n\r\n    /*\r\n        Freezable\r\n    */\r\n\r\n    function canFreeze(address _address) internal returns (bool result) {\r\n        return isCreator(_address);\r\n    }\r\n\r\n    /*\r\n        Other\r\n    */\r\n\r\n    /// @notice Enable withdrawal of other tokens (by airdrop, forks maybe?)\r\n    /// @param _tokenContract The token contract address to withdraw tokens from.\r\n    /// @param _to The address of the recipient\r\n    function withdrawExternalTokens(address _tokenContract, address _to) public onlyCreator returns (bool) {\r\n        ERC20Basic token = ERC20Basic(_tokenContract);\r\n        uint256 amount = token.balanceOf(address(this));\r\n        return token.transfer(_to, amount);\r\n    }\r\n\r\n    /// @notice Enable withdrawal of any Ether randomly assigned to this account (by mining, forks maybe?)\r\n    /// @param _to The address of the recipient\r\n    function withdrawEther(address _to) public onlyCreator {\r\n        _to.transfer(address(this).balance);\r\n    }\r\n}",
  "sourcePath": "D:\\o0w3wo\\Crypto\\Cacao\\coin\\contracts\\Cacao.sol",
  "compiler": {
    "name": "solc",
    "version": "0.4.21+commit.dfe3193c.Emscripten.clang"
  },
  "schemaVersion": "2.0.0",
  "updatedAt": "2018-05-22T05:56:41.620Z"
}