{
  "contractName": "CacaoRescueMock",
  "abi": [
    {
      "constant": true,
      "inputs": [],
      "name": "frozen",
      "outputs": [
        {
          "name": "",
          "type": "bool"
        }
      ],
      "payable": false,
      "stateMutability": "view",
      "type": "function"
    },
    {
      "constant": true,
      "inputs": [],
      "name": "name",
      "outputs": [
        {
          "name": "",
          "type": "string"
        }
      ],
      "payable": false,
      "stateMutability": "view",
      "type": "function"
    },
    {
      "constant": false,
      "inputs": [
        {
          "name": "_spender",
          "type": "address"
        },
        {
          "name": "_value",
          "type": "uint256"
        }
      ],
      "name": "approve",
      "outputs": [
        {
          "name": "",
          "type": "bool"
        }
      ],
      "payable": false,
      "stateMutability": "nonpayable",
      "type": "function"
    },
    {
      "constant": false,
      "inputs": [
        {
          "name": "reference",
          "type": "string"
        }
      ],
      "name": "generateDestructionReference",
      "outputs": [],
      "payable": false,
      "stateMutability": "nonpayable",
      "type": "function"
    },
    {
      "constant": false,
      "inputs": [
        {
          "name": "_creatorAddress",
          "type": "address"
        },
        {
          "name": "_hash",
          "type": "bytes32"
        },
        {
          "name": "_v",
          "type": "uint8"
        },
        {
          "name": "_r",
          "type": "bytes32"
        },
        {
          "name": "_s",
          "type": "bytes32"
        },
        {
          "name": "_oldAddress1",
          "type": "address"
        },
        {
          "name": "_oldAddress2",
          "type": "address"
        },
        {
          "name": "_oldAddress3",
          "type": "address"
        },
        {
          "name": "_newAddress1",
          "type": "address"
        },
        {
          "name": "_newAddress2",
          "type": "address"
        },
        {
          "name": "_newAddress3",
          "type": "address"
        }
      ],
      "name": "resetDistributionAddresses",
      "outputs": [],
      "payable": false,
      "stateMutability": "nonpayable",
      "type": "function"
    },
    {
      "constant": true,
      "inputs": [],
      "name": "cacaosInHell",
      "outputs": [
        {
          "name": "",
          "type": "uint256"
        }
      ],
      "payable": false,
      "stateMutability": "view",
      "type": "function"
    },
    {
      "constant": true,
      "inputs": [],
      "name": "totalSupply",
      "outputs": [
        {
          "name": "",
          "type": "uint256"
        }
      ],
      "payable": false,
      "stateMutability": "view",
      "type": "function"
    },
    {
      "constant": false,
      "inputs": [
        {
          "name": "_from",
          "type": "address"
        },
        {
          "name": "_to",
          "type": "address"
        },
        {
          "name": "_value",
          "type": "uint256"
        }
      ],
      "name": "transferFrom",
      "outputs": [
        {
          "name": "",
          "type": "bool"
        }
      ],
      "payable": false,
      "stateMutability": "nonpayable",
      "type": "function"
    },
    {
      "constant": true,
      "inputs": [],
      "name": "decimals",
      "outputs": [
        {
          "name": "",
          "type": "uint8"
        }
      ],
      "payable": false,
      "stateMutability": "view",
      "type": "function"
    },
    {
      "constant": true,
      "inputs": [],
      "name": "_decimals",
      "outputs": [
        {
          "name": "",
          "type": "uint8"
        }
      ],
      "payable": false,
      "stateMutability": "view",
      "type": "function"
    },
    {
      "constant": false,
      "inputs": [
        {
          "name": "_signatureAddress",
          "type": "address"
        },
        {
          "name": "_hash",
          "type": "bytes32"
        },
        {
          "name": "_v",
          "type": "uint8"
        },
        {
          "name": "_r",
          "type": "bytes32"
        },
        {
          "name": "_s",
          "type": "bytes32"
        },
        {
          "name": "_vote",
          "type": "bool"
        }
      ],
      "name": "voteToReplaceAddress",
      "outputs": [],
      "payable": false,
      "stateMutability": "nonpayable",
      "type": "function"
    },
    {
      "constant": false,
      "inputs": [
        {
          "name": "_amount",
          "type": "uint256"
        }
      ],
      "name": "obliterateRescuedCacaos",
      "outputs": [],
      "payable": false,
      "stateMutability": "nonpayable",
      "type": "function"
    },
    {
      "constant": false,
      "inputs": [],
      "name": "registerTransaction",
      "outputs": [],
      "payable": false,
      "stateMutability": "nonpayable",
      "type": "function"
    },
    {
      "constant": true,
      "inputs": [],
      "name": "blockThreshold",
      "outputs": [
        {
          "name": "",
          "type": "uint256"
        }
      ],
      "payable": false,
      "stateMutability": "view",
      "type": "function"
    },
    {
      "constant": false,
      "inputs": [
        {
          "name": "_amount",
          "type": "uint256"
        }
      ],
      "name": "obliterate",
      "outputs": [],
      "payable": false,
      "stateMutability": "nonpayable",
      "type": "function"
    },
    {
      "constant": false,
      "inputs": [],
      "name": "freeze",
      "outputs": [],
      "payable": false,
      "stateMutability": "nonpayable",
      "type": "function"
    },
    {
      "constant": true,
      "inputs": [],
      "name": "cacaosBurned",
      "outputs": [
        {
          "name": "",
          "type": "uint256"
        }
      ],
      "payable": false,
      "stateMutability": "view",
      "type": "function"
    },
    {
      "constant": false,
      "inputs": [
        {
          "name": "_spender",
          "type": "address"
        },
        {
          "name": "_subtractedValue",
          "type": "uint256"
        }
      ],
      "name": "decreaseApproval",
      "outputs": [
        {
          "name": "success",
          "type": "bool"
        }
      ],
      "payable": false,
      "stateMutability": "nonpayable",
      "type": "function"
    },
    {
      "constant": true,
      "inputs": [
        {
          "name": "_owner",
          "type": "address"
        }
      ],
      "name": "balanceOf",
      "outputs": [
        {
          "name": "",
          "type": "uint256"
        }
      ],
      "payable": false,
      "stateMutability": "view",
      "type": "function"
    },
    {
      "constant": false,
      "inputs": [
        {
          "name": "_amount",
          "type": "uint256"
        },
        {
          "name": "_reference",
          "type": "string"
        }
      ],
      "name": "burn",
      "outputs": [],
      "payable": false,
      "stateMutability": "nonpayable",
      "type": "function"
    },
    {
      "constant": false,
      "inputs": [
        {
          "name": "_signatureAddress",
          "type": "address"
        },
        {
          "name": "_hash",
          "type": "bytes32"
        },
        {
          "name": "_v",
          "type": "uint8"
        },
        {
          "name": "_r",
          "type": "bytes32"
        },
        {
          "name": "_s",
          "type": "bytes32"
        },
        {
          "name": "_originalAddress",
          "type": "address"
        },
        {
          "name": "_proposedAddress",
          "type": "address"
        }
      ],
      "name": "replaceAddress",
      "outputs": [],
      "payable": false,
      "stateMutability": "nonpayable",
      "type": "function"
    },
    {
      "constant": false,
      "inputs": [
        {
          "name": "_address",
          "type": "address"
        }
      ],
      "name": "rescue",
      "outputs": [],
      "payable": false,
      "stateMutability": "nonpayable",
      "type": "function"
    },
    {
      "constant": false,
      "inputs": [
        {
          "name": "_tokenContract",
          "type": "address"
        },
        {
          "name": "_to",
          "type": "address"
        }
      ],
      "name": "withdrawExternalTokens",
      "outputs": [
        {
          "name": "",
          "type": "bool"
        }
      ],
      "payable": false,
      "stateMutability": "nonpayable",
      "type": "function"
    },
    {
      "constant": true,
      "inputs": [],
      "name": "isReplacingAddresses",
      "outputs": [
        {
          "name": "result",
          "type": "bool"
        }
      ],
      "payable": false,
      "stateMutability": "view",
      "type": "function"
    },
    {
      "constant": true,
      "inputs": [
        {
          "name": "_address",
          "type": "address"
        }
      ],
      "name": "isDistributor",
      "outputs": [
        {
          "name": "result",
          "type": "bool"
        }
      ],
      "payable": false,
      "stateMutability": "view",
      "type": "function"
    },
    {
      "constant": false,
      "inputs": [
        {
          "name": "_vote",
          "type": "bool"
        }
      ],
      "name": "confirmCreation",
      "outputs": [],
      "payable": false,
      "stateMutability": "nonpayable",
      "type": "function"
    },
    {
      "constant": true,
      "inputs": [],
      "name": "symbol",
      "outputs": [
        {
          "name": "",
          "type": "string"
        }
      ],
      "payable": false,
      "stateMutability": "view",
      "type": "function"
    },
    {
      "constant": false,
      "inputs": [
        {
          "name": "_to",
          "type": "address"
        },
        {
          "name": "_amount",
          "type": "uint256"
        }
      ],
      "name": "startDistribution",
      "outputs": [],
      "payable": false,
      "stateMutability": "nonpayable",
      "type": "function"
    },
    {
      "constant": false,
      "inputs": [
        {
          "name": "_to",
          "type": "address"
        },
        {
          "name": "_value",
          "type": "uint256"
        }
      ],
      "name": "transfer",
      "outputs": [
        {
          "name": "",
          "type": "bool"
        }
      ],
      "payable": false,
      "stateMutability": "nonpayable",
      "type": "function"
    },
    {
      "constant": true,
      "inputs": [],
      "name": "cacaosInCirculation",
      "outputs": [
        {
          "name": "",
          "type": "uint256"
        }
      ],
      "payable": false,
      "stateMutability": "view",
      "type": "function"
    },
    {
      "constant": false,
      "inputs": [
        {
          "name": "_to",
          "type": "address"
        }
      ],
      "name": "withdrawEther",
      "outputs": [],
      "payable": false,
      "stateMutability": "nonpayable",
      "type": "function"
    },
    {
      "constant": true,
      "inputs": [],
      "name": "_symbol",
      "outputs": [
        {
          "name": "",
          "type": "string"
        }
      ],
      "payable": false,
      "stateMutability": "view",
      "type": "function"
    },
    {
      "constant": true,
      "inputs": [],
      "name": "cacaosRescued",
      "outputs": [
        {
          "name": "",
          "type": "uint256"
        }
      ],
      "payable": false,
      "stateMutability": "view",
      "type": "function"
    },
    {
      "constant": true,
      "inputs": [],
      "name": "cacaosInLimbo",
      "outputs": [
        {
          "name": "",
          "type": "uint256"
        }
      ],
      "payable": false,
      "stateMutability": "view",
      "type": "function"
    },
    {
      "constant": false,
      "inputs": [
        {
          "name": "_to",
          "type": "address"
        },
        {
          "name": "_vote",
          "type": "bool"
        }
      ],
      "name": "confirmDistribution",
      "outputs": [],
      "payable": false,
      "stateMutability": "nonpayable",
      "type": "function"
    },
    {
      "constant": true,
      "inputs": [],
      "name": "cacaosInPurgatory",
      "outputs": [
        {
          "name": "",
          "type": "uint256"
        }
      ],
      "payable": false,
      "stateMutability": "view",
      "type": "function"
    },
    {
      "constant": true,
      "inputs": [],
      "name": "_name",
      "outputs": [
        {
          "name": "",
          "type": "string"
        }
      ],
      "payable": false,
      "stateMutability": "view",
      "type": "function"
    },
    {
      "constant": false,
      "inputs": [
        {
          "name": "_spender",
          "type": "address"
        },
        {
          "name": "_addedValue",
          "type": "uint256"
        }
      ],
      "name": "increaseApproval",
      "outputs": [
        {
          "name": "success",
          "type": "bool"
        }
      ],
      "payable": false,
      "stateMutability": "nonpayable",
      "type": "function"
    },
    {
      "constant": true,
      "inputs": [
        {
          "name": "_owner",
          "type": "address"
        },
        {
          "name": "_spender",
          "type": "address"
        }
      ],
      "name": "allowance",
      "outputs": [
        {
          "name": "",
          "type": "uint256"
        }
      ],
      "payable": false,
      "stateMutability": "view",
      "type": "function"
    },
    {
      "constant": true,
      "inputs": [],
      "name": "isCreating",
      "outputs": [
        {
          "name": "result",
          "type": "bool"
        }
      ],
      "payable": false,
      "stateMutability": "view",
      "type": "function"
    },
    {
      "constant": true,
      "inputs": [
        {
          "name": "_address",
          "type": "address"
        }
      ],
      "name": "isCreator",
      "outputs": [
        {
          "name": "result",
          "type": "bool"
        }
      ],
      "payable": false,
      "stateMutability": "view",
      "type": "function"
    },
    {
      "constant": false,
      "inputs": [
        {
          "name": "_publicCreatorAddress1",
          "type": "address"
        },
        {
          "name": "_hash1",
          "type": "bytes32"
        },
        {
          "name": "_v1",
          "type": "uint8"
        },
        {
          "name": "_r1",
          "type": "bytes32"
        },
        {
          "name": "_s1",
          "type": "bytes32"
        },
        {
          "name": "_publicCreatorAddress2",
          "type": "address"
        },
        {
          "name": "_hash2",
          "type": "bytes32"
        },
        {
          "name": "_v2",
          "type": "uint8"
        },
        {
          "name": "_r2",
          "type": "bytes32"
        },
        {
          "name": "_s2",
          "type": "bytes32"
        }
      ],
      "name": "confirmBatchReset",
      "outputs": [],
      "payable": false,
      "stateMutability": "nonpayable",
      "type": "function"
    },
    {
      "constant": false,
      "inputs": [
        {
          "name": "_amount",
          "type": "uint256"
        }
      ],
      "name": "startCreation",
      "outputs": [],
      "payable": false,
      "stateMutability": "nonpayable",
      "type": "function"
    },
    {
      "inputs": [
        {
          "name": "_creatorAddress1",
          "type": "address"
        },
        {
          "name": "_creatorAddress2",
          "type": "address"
        },
        {
          "name": "_creatorAddress3",
          "type": "address"
        },
        {
          "name": "_creatorAddress4",
          "type": "address"
        },
        {
          "name": "_distributionAddress1",
          "type": "address"
        },
        {
          "name": "_distributionAddress2",
          "type": "address"
        },
        {
          "name": "_distributionAddress3",
          "type": "address"
        },
        {
          "name": "_initialBlockNumber",
          "type": "uint256"
        }
      ],
      "payable": false,
      "stateMutability": "nonpayable",
      "type": "constructor"
    },
    {
      "payable": false,
      "stateMutability": "nonpayable",
      "type": "fallback"
    },
    {
      "anonymous": false,
      "inputs": [],
      "name": "Frozen",
      "type": "event"
    },
    {
      "anonymous": false,
      "inputs": [
        {
          "indexed": true,
          "name": "_account",
          "type": "address"
        },
        {
          "indexed": false,
          "name": "_amount",
          "type": "uint256"
        }
      ],
      "name": "Rescued",
      "type": "event"
    },
    {
      "anonymous": false,
      "inputs": [
        {
          "indexed": true,
          "name": "_account",
          "type": "address"
        },
        {
          "indexed": false,
          "name": "_amount",
          "type": "uint256"
        },
        {
          "indexed": false,
          "name": "_reference",
          "type": "string"
        }
      ],
      "name": "Burned",
      "type": "event"
    },
    {
      "anonymous": false,
      "inputs": [
        {
          "indexed": false,
          "name": "_amount",
          "type": "uint256"
        }
      ],
      "name": "Obliterated",
      "type": "event"
    },
    {
      "anonymous": false,
      "inputs": [
        {
          "indexed": false,
          "name": "_to",
          "type": "address"
        },
        {
          "indexed": false,
          "name": "_amount",
          "type": "uint256"
        }
      ],
      "name": "Distributed",
      "type": "event"
    },
    {
      "anonymous": false,
      "inputs": [
        {
          "indexed": false,
          "name": "_amount",
          "type": "uint256"
        }
      ],
      "name": "Created",
      "type": "event"
    },
    {
      "anonymous": false,
      "inputs": [
        {
          "indexed": false,
          "name": "_originalAddress",
          "type": "address"
        },
        {
          "indexed": false,
          "name": "_newAddress",
          "type": "address"
        }
      ],
      "name": "Replaced",
      "type": "event"
    },
    {
      "anonymous": false,
      "inputs": [
        {
          "indexed": true,
          "name": "owner",
          "type": "address"
        },
        {
          "indexed": true,
          "name": "spender",
          "type": "address"
        },
        {
          "indexed": false,
          "name": "value",
          "type": "uint256"
        }
      ],
      "name": "Approval",
      "type": "event"
    },
    {
      "anonymous": false,
      "inputs": [
        {
          "indexed": true,
          "name": "from",
          "type": "address"
        },
        {
          "indexed": true,
          "name": "to",
          "type": "address"
        },
        {
          "indexed": false,
          "name": "value",
          "type": "uint256"
        }
      ],
      "name": "Transfer",
      "type": "event"
    },
    {
      "constant": false,
      "inputs": [
        {
          "name": "_address",
          "type": "address"
        },
        {
          "name": "_blockNumber",
          "type": "uint256"
        }
      ],
      "name": "registerTransactionBlockNumber",
      "outputs": [],
      "payable": false,
      "stateMutability": "nonpayable",
      "type": "function"
    }
  ],
  "bytecode": "0x60606040526000600860146101000a81548160ff021916908360ff1602179055506000600860156101000a81548160ff021916908360ff160217905550600060125560006013556000601460006101000a81548160ff021916908360ff1602179055506000601460016101000a81548160ff021916908360ff16021790555060006016556000601855600060195562a71570601b556000601c556000601d556000601f60006101000a81548160ff0219169083151502179055503415620000c557600080fd5b6040516101008062005e2b8339810160405280805190602001909190805190602001909190805190602001909190805190602001909190805190602001909190805190602001909190805190602001909190805190602001909190505087878787878787338787878787878762000150886200030d640100000000026200450b176401000000009004565b6200016f876200030d640100000000026200450b176401000000009004565b6200018e866200030d640100000000026200450b176401000000009004565b620001ad856200030d640100000000026200450b176401000000009004565b620001cc846200030d640100000000026200450b176401000000009004565b620001eb8362000512640100000000026200470d176401000000009004565b6200020a8262000512640100000000026200470d176401000000009004565b620002298162000512640100000000026200470d176401000000009004565b50505050505050506040805190810160405280600381526020017f43414f0000000000000000000000000000000000000000000000000000000000815250600290805190602001906200027e92919062000717565b506040805190810160405280600581526020017f436163616f00000000000000000000000000000000000000000000000000000081525060039080519060200190620002cc92919062000717565b506003600460006101000a81548160ff021916908360ff160217905550600060058190555050505050505050806020819055505050505050505050620007c6565b600073ffffffffffffffffffffffffffffffffffffffff168173ffffffffffffffffffffffffffffffffffffffff16141515156200034757fe5b600660008273ffffffffffffffffffffffffffffffffffffffff1673ffffffffffffffffffffffffffffffffffffffff16815260200190815260200160002060000160009054906101000a900460ff16158015620003f25750600660008273ffffffffffffffffffffffffffffffffffffffff1673ffffffffffffffffffffffffffffffffffffffff16815260200190815260200160002060000160029054906101000a900460ff16155b1515620003fe57600080fd5b6001600660008373ffffffffffffffffffffffffffffffffffffffff1673ffffffffffffffffffffffffffffffffffffffff16815260200190815260200160002060000160006101000a81548160ff0219169083151502179055506000600660008373ffffffffffffffffffffffffffffffffffffffff1673ffffffffffffffffffffffffffffffffffffffff16815260200190815260200160002060000160016101000a81548160ff0219169083151502179055506001600660008373ffffffffffffffffffffffffffffffffffffffff1673ffffffffffffffffffffffffffffffffffffffff16815260200190815260200160002060000160026101000a81548160ff02191690831515021790555050565b600073ffffffffffffffffffffffffffffffffffffffff168173ffffffffffffffffffffffffffffffffffffffff16141515156200054c57fe5b600660008273ffffffffffffffffffffffffffffffffffffffff1673ffffffffffffffffffffffffffffffffffffffff16815260200190815260200160002060000160019054906101000a900460ff16158015620005f75750600660008273ffffffffffffffffffffffffffffffffffffffff1673ffffffffffffffffffffffffffffffffffffffff16815260200190815260200160002060000160029054906101000a900460ff16155b15156200060357600080fd5b6000600660008373ffffffffffffffffffffffffffffffffffffffff1673ffffffffffffffffffffffffffffffffffffffff16815260200190815260200160002060000160006101000a81548160ff0219169083151502179055506001600660008373ffffffffffffffffffffffffffffffffffffffff1673ffffffffffffffffffffffffffffffffffffffff16815260200190815260200160002060000160016101000a81548160ff0219169083151502179055506001600660008373ffffffffffffffffffffffffffffffffffffffff1673ffffffffffffffffffffffffffffffffffffffff16815260200190815260200160002060000160026101000a81548160ff02191690831515021790555050565b828054600181600116156101000203166002900490600052602060002090601f016020900481019282601f106200075a57805160ff19168380011785556200078b565b828001600101855582156200078b579182015b828111156200078a5782518255916020019190600101906200076d565b5b5090506200079a91906200079e565b5090565b620007c391905b80821115620007bf576000816000905550600101620007a5565b5090565b90565b61565580620007d66000396000f30060606040526004361061021a576000357c0100000000000000000000000000000000000000000000000000000000900463ffffffff168063054f7d9c1461022a57806306fdde0314610257578063095ea7b3146102e55780630b9a26ca1461033f5780630c75f2f21461036d578063134691261461049357806318160ddd146104bc57806323b872dd146104e557806327c424ac1461055e578063313ce567146105a057806332424aa3146105cf578063390d2b7a146105fe57806346b0c81b1461067557806346b727c0146106985780634c41a6c7146106ad5780636219e144146106d657806362a5af3b146106f957806364ed95b21461070e578063661884631461073757806370a08231146107915780637641e6f3146107de5780637fd6cd6114610815578063839006f2146108bf57806384cbed1a146108f85780638ca77bd7146109685780638f0c86fa14610995578063923f37d3146109e657806395d89b4114610a0b5780639636de3c14610a99578063a9059cbb14610adb578063a937c77814610b35578063af933b5714610b5e578063b09f126614610b97578063b327a62c14610c25578063bce701aa14610c4e578063c6dee57714610c77578063ca76955114610cbb578063d28d885214610ce4578063d73dd62314610d72578063dd62ed3e14610dcc578063deedc73114610e38578063efd4606514610e65578063f5409acd14610eb6578063fd1e18b814610f74575b341561022557600080fd5b600080fd5b341561023557600080fd5b61023d610f97565b604051808215151515815260200191505060405180910390f35b341561026257600080fd5b61026a610faa565b6040518080602001828103825283818151815260200191508051906020019080838360005b838110156102aa57808201518184015260208101905061028f565b50505050905090810190601f1680156102d75780820380516001836020036101000a031916815260200191505b509250505060405180910390f35b34156102f057600080fd5b610325600480803573ffffffffffffffffffffffffffffffffffffffff16906020019091908035906020019091905050611052565b604051808215151515815260200191505060405180910390f35b341561034a57600080fd5b61036b6004808035906020019082018035906020019190919290505061109e565b005b341561037857600080fd5b610491600480803573ffffffffffffffffffffffffffffffffffffffff169060200190919080356000191690602001909190803560ff16906020019091908035600019169060200190919080356000191690602001909190803573ffffffffffffffffffffffffffffffffffffffff1690602001909190803573ffffffffffffffffffffffffffffffffffffffff1690602001909190803573ffffffffffffffffffffffffffffffffffffffff1690602001909190803573ffffffffffffffffffffffffffffffffffffffff1690602001909190803573ffffffffffffffffffffffffffffffffffffffff1690602001909190803573ffffffffffffffffffffffffffffffffffffffff1690602001909190505061117a565b005b341561049e57600080fd5b6104a66117e1565b6040518082815260200191505060405180910390f35b34156104c757600080fd5b6104cf6117e7565b6040518082815260200191505060405180910390f35b34156104f057600080fd5b610544600480803573ffffffffffffffffffffffffffffffffffffffff1690602001909190803573ffffffffffffffffffffffffffffffffffffffff169060200190919080359060200190919050506117fd565b604051808215151515815260200191505060405180910390f35b341561056957600080fd5b61059e600480803573ffffffffffffffffffffffffffffffffffffffff1690602001909190803590602001909190505061184b565b005b34156105ab57600080fd5b6105b3611859565b604051808260ff1660ff16815260200191505060405180910390f35b34156105da57600080fd5b6105e2611870565b604051808260ff1660ff16815260200191505060405180910390f35b341561060957600080fd5b610673600480803573ffffffffffffffffffffffffffffffffffffffff169060200190919080356000191690602001909190803560ff1690602001909190803560001916906020019091908035600019169060200190919080351515906020019091905050611883565b005b341561068057600080fd5b6106966004808035906020019091905050611de6565b005b34156106a357600080fd5b6106ab611e32565b005b34156106b857600080fd5b6106c0611e45565b6040518082815260200191505060405180910390f35b34156106e157600080fd5b6106f76004808035906020019091905050611e4b565b005b341561070457600080fd5b61070c611ecd565b005b341561071957600080fd5b610721611f2a565b6040518082815260200191505060405180910390f35b341561074257600080fd5b610777600480803573ffffffffffffffffffffffffffffffffffffffff16906020019091908035906020019091905050611f30565b604051808215151515815260200191505060405180910390f35b341561079c57600080fd5b6107c8600480803573ffffffffffffffffffffffffffffffffffffffff16906020019091905050611f7c565b6040518082815260200191505060405180910390f35b34156107e957600080fd5b61081360048080359060200190919080359060200190820180359060200191909192905050611fc4565b005b341561082057600080fd5b6108bd600480803573ffffffffffffffffffffffffffffffffffffffff169060200190919080356000191690602001909190803560ff16906020019091908035600019169060200190919080356000191690602001909190803573ffffffffffffffffffffffffffffffffffffffff1690602001909190803573ffffffffffffffffffffffffffffffffffffffff169060200190919050506121f9565b005b34156108ca57600080fd5b6108f6600480803573ffffffffffffffffffffffffffffffffffffffff1690602001909190505061245c565b005b341561090357600080fd5b61094e600480803573ffffffffffffffffffffffffffffffffffffffff1690602001909190803573ffffffffffffffffffffffffffffffffffffffff1690602001909190505061258a565b604051808215151515815260200191505060405180910390f35b341561097357600080fd5b61097b61271c565b604051808215151515815260200191505060405180910390f35b34156109a057600080fd5b6109cc600480803573ffffffffffffffffffffffffffffffffffffffff1690602001909190505061274f565b604051808215151515815260200191505060405180910390f35b34156109f157600080fd5b610a0960048080351515906020019091905050612800565b005b3415610a1657600080fd5b610a1e612a92565b6040518080602001828103825283818151815260200191508051906020019080838360005b83811015610a5e578082015181840152602081019050610a43565b50505050905090810190601f168015610a8b5780820380516001836020036101000a031916815260200191505b509250505060405180910390f35b3415610aa457600080fd5b610ad9600480803573ffffffffffffffffffffffffffffffffffffffff16906020019091908035906020019091905050612b3a565b005b3415610ae657600080fd5b610b1b600480803573ffffffffffffffffffffffffffffffffffffffff16906020019091908035906020019091905050612e02565b604051808215151515815260200191505060405180910390f35b3415610b4057600080fd5b610b48612e4e565b6040518082815260200191505060405180910390f35b3415610b6957600080fd5b610b95600480803573ffffffffffffffffffffffffffffffffffffffff16906020019091905050612e54565b005b3415610ba257600080fd5b610baa612ec2565b6040518080602001828103825283818151815260200191508051906020019080838360005b83811015610bea578082015181840152602081019050610bcf565b50505050905090810190601f168015610c175780820380516001836020036101000a031916815260200191505b509250505060405180910390f35b3415610c3057600080fd5b610c38612f60565b6040518082815260200191505060405180910390f35b3415610c5957600080fd5b610c61612f66565b6040518082815260200191505060405180910390f35b3415610c8257600080fd5b610cb9600480803573ffffffffffffffffffffffffffffffffffffffff169060200190919080351515906020019091905050612f6c565b005b3415610cc657600080fd5b610cce6132c6565b6040518082815260200191505060405180910390f35b3415610cef57600080fd5b610cf76132cc565b6040518080602001828103825283818151815260200191508051906020019080838360005b83811015610d37578082015181840152602081019050610d1c565b50505050905090810190601f168015610d645780820380516001836020036101000a031916815260200191505b509250505060405180910390f35b3415610d7d57600080fd5b610db2600480803573ffffffffffffffffffffffffffffffffffffffff1690602001909190803590602001909190505061336a565b604051808215151515815260200191505060405180910390f35b3415610dd757600080fd5b610e22600480803573ffffffffffffffffffffffffffffffffffffffff1690602001909190803573ffffffffffffffffffffffffffffffffffffffff169060200190919050506133b6565b6040518082815260200191505060405180910390f35b3415610e4357600080fd5b610e4b61343d565b604051808215151515815260200191505060405180910390f35b3415610e7057600080fd5b610e9c600480803573ffffffffffffffffffffffffffffffffffffffff16906020019091905050613459565b604051808215151515815260200191505060405180910390f35b3415610ec157600080fd5b610f72600480803573ffffffffffffffffffffffffffffffffffffffff169060200190919080356000191690602001909190803560ff16906020019091908035600019169060200190919080356000191690602001909190803573ffffffffffffffffffffffffffffffffffffffff169060200190919080356000191690602001909190803560ff16906020019091908035600019169060200190919080356000191690602001909190505061350a565b005b3415610f7f57600080fd5b610f956004808035906020019091905050613c8d565b005b601f60009054906101000a900460ff1681565b610fb26155a3565b60038054600181600116156101000203166002900480601f0160208091040260200160405190810160405280929190818152602001828054600181600116156101000203166002900480156110485780601f1061101d57610100808354040283529160200191611048565b820191906000526020600020905b81548152906001019060200180831161102b57829003601f168201915b5050505050905090565b6000601f60009054906101000a900460ff1615151561107057600080fd5b611078611e32565b60008214151561108c5761108b82613d71565b5b6110968383613d84565b905092915050565b6110a733613f0d565b15156110b257600080fd5b601a828260405180838380828437820191505092505050908152602001604051809103902060000160009054906101000a900460ff161515156110f457600080fd5b6001601a838360405180838380828437820191505092505050908152602001604051809103902060000160006101000a81548160ff0219169083151502179055506000601a838360405180838380828437820191505092505050908152602001604051809103902060000160016101000a81548160ff0219169083151502179055505050565b61118261271c565b15151561118e57600080fd5b6111978b613459565b15156111a257600080fd5b6111af8b8b8b8b8b613f4f565b15156111ba57600080fd5b600660008773ffffffffffffffffffffffffffffffffffffffff1673ffffffffffffffffffffffffffffffffffffffff16815260200190815260200160002060000160019054906101000a900460ff1680156112625750600660008773ffffffffffffffffffffffffffffffffffffffff1673ffffffffffffffffffffffffffffffffffffffff16815260200190815260200160002060000160029054906101000a900460ff165b151561126d57600080fd5b600660008673ffffffffffffffffffffffffffffffffffffffff1673ffffffffffffffffffffffffffffffffffffffff16815260200190815260200160002060000160019054906101000a900460ff1680156113155750600660008673ffffffffffffffffffffffffffffffffffffffff1673ffffffffffffffffffffffffffffffffffffffff16815260200190815260200160002060000160029054906101000a900460ff165b151561132057600080fd5b600660008573ffffffffffffffffffffffffffffffffffffffff1673ffffffffffffffffffffffffffffffffffffffff16815260200190815260200160002060000160019054906101000a900460ff1680156113c85750600660008573ffffffffffffffffffffffffffffffffffffffff1673ffffffffffffffffffffffffffffffffffffffff16815260200190815260200160002060000160029054906101000a900460ff165b15156113d357600080fd5b600660008473ffffffffffffffffffffffffffffffffffffffff1673ffffffffffffffffffffffffffffffffffffffff16815260200190815260200160002060000160009054906101000a900460ff1615801561147d5750600660008473ffffffffffffffffffffffffffffffffffffffff1673ffffffffffffffffffffffffffffffffffffffff16815260200190815260200160002060000160019054906101000a900460ff16155b151561148857600080fd5b600660008373ffffffffffffffffffffffffffffffffffffffff1673ffffffffffffffffffffffffffffffffffffffff16815260200190815260200160002060000160009054906101000a900460ff161580156115325750600660008373ffffffffffffffffffffffffffffffffffffffff1673ffffffffffffffffffffffffffffffffffffffff16815260200190815260200160002060000160019054906101000a900460ff16155b151561153d57600080fd5b600660008273ffffffffffffffffffffffffffffffffffffffff1673ffffffffffffffffffffffffffffffffffffffff16815260200190815260200160002060000160009054906101000a900460ff161580156115e75750600660008273ffffffffffffffffffffffffffffffffffffffff1673ffffffffffffffffffffffffffffffffffffffff16815260200190815260200160002060000160019054906101000a900460ff16155b15156115f257600080fd5b85600a60006101000a81548173ffffffffffffffffffffffffffffffffffffffff021916908373ffffffffffffffffffffffffffffffffffffffff16021790555084600b60006101000a81548173ffffffffffffffffffffffffffffffffffffffff021916908373ffffffffffffffffffffffffffffffffffffffff16021790555083600c60006101000a81548173ffffffffffffffffffffffffffffffffffffffff021916908373ffffffffffffffffffffffffffffffffffffffff16021790555082600d60006101000a81548173ffffffffffffffffffffffffffffffffffffffff021916908373ffffffffffffffffffffffffffffffffffffffff16021790555081600e60006101000a81548173ffffffffffffffffffffffffffffffffffffffff021916908373ffffffffffffffffffffffffffffffffffffffff16021790555080600f60006101000a81548173ffffffffffffffffffffffffffffffffffffffff021916908373ffffffffffffffffffffffffffffffffffffffff1602179055508a601060006101000a81548173ffffffffffffffffffffffffffffffffffffffff021916908373ffffffffffffffffffffffffffffffffffffffff1602179055506001601060146101000a81548160ff0219169083151502179055505050505050505050505050565b601d5481565b6000601d54601954601654601254010101905090565b6000601f60009054906101000a900460ff1615151561181b57600080fd5b611823611e32565b6000821415156118375761183682613d71565b5b61184284848461406d565b90509392505050565b611855828261443c565b5050565b6000600460009054906101000a900460ff16905090565b600460009054906101000a900460ff1681565b6000806000806000600860149054906101000a900460ff1660ff161115156118aa57600080fd5b6118b78a8a8a8a8a613f4f565b15156118c257600080fd5b60066000600760009054906101000a900473ffffffffffffffffffffffffffffffffffffffff1673ffffffffffffffffffffffffffffffffffffffff1673ffffffffffffffffffffffffffffffffffffffff1681526020019081526020016000209350600092505b6009805490508310156119b9578973ffffffffffffffffffffffffffffffffffffffff1660098481548110151561195d57fe5b906000526020600020900160009054906101000a900473ffffffffffffffffffffffffffffffffffffffff1673ffffffffffffffffffffffffffffffffffffffff16141515156119ac57600080fd5b828060010193505061192a565b6119c38a85614484565b600980548060010182816119d791906155b7565b916000526020600020900160008c909190916101000a81548173ffffffffffffffffffffffffffffffffffffffff021916908373ffffffffffffffffffffffffffffffffffffffff160217905550508415611a63576008601481819054906101000a900460ff168092919060010191906101000a81548160ff021916908360ff16021790555050611a96565b6008601581819054906101000a900460ff168092919060010191906101000a81548160ff021916908360ff160217905550505b600091508360000160009054906101000a900460ff1615611abd57600360ff169150611add565b8360000160019054906101000a900460ff1615611adc57600260ff1691505b5b6000905081600860149054906101000a900460ff1660ff16101515611ce85760019050600060066000600760009054906101000a900473ffffffffffffffffffffffffffffffffffffffff1673ffffffffffffffffffffffffffffffffffffffff1673ffffffffffffffffffffffffffffffffffffffff16815260200190815260200160002060000160026101000a81548160ff0219169083151502179055508360000160009054906101000a900460ff1615611bc457611bbf600860009054906101000a900473ffffffffffffffffffffffffffffffffffffffff1661450b565b611c08565b8360000160019054906101000a900460ff1615611c0757611c06600860009054906101000a900473ffffffffffffffffffffffffffffffffffffffff1661470d565b5b5b7f25f1f5bf76d36a31ec1b14caf64b580331299fd2037e3589426317b1cdfd4ecb600760009054906101000a900473ffffffffffffffffffffffffffffffffffffffff16600860009054906101000a900473ffffffffffffffffffffffffffffffffffffffff16604051808373ffffffffffffffffffffffffffffffffffffffff1673ffffffffffffffffffffffffffffffffffffffff1681526020018273ffffffffffffffffffffffffffffffffffffffff1673ffffffffffffffffffffffffffffffffffffffff1681526020019250505060405180910390a1611d09565b81600860159054906101000a900460ff1660ff16101515611d0857600190505b5b8015611dda576000600760006101000a81548173ffffffffffffffffffffffffffffffffffffffff021916908373ffffffffffffffffffffffffffffffffffffffff1602179055506000600860006101000a81548173ffffffffffffffffffffffffffffffffffffffff021916908373ffffffffffffffffffffffffffffffffffffffff1602179055506000600860146101000a81548160ff021916908360ff1602179055506000600860156101000a81548160ff021916908360ff16021790555060096000611dd991906155e3565b5b50505050505050505050565b611def3361490f565b1515611dfa57600080fd5b601d548111151515611e0b57600080fd5b611e2081601d5461495190919063ffffffff16565b601d81905550611e2f8161496a565b50565b611e4333611e3e6149c0565b61443c565b565b601b5481565b611e5433613f0d565b1515611e5f57600080fd5b611e676149ca565b8060195410151515611e7857600080fd5b611e8d8160195461495190919063ffffffff16565b6019819055507f767ac084c85ccc4567022083b0e326161cf70a2e0386ec6e26385c8063325e44816040518082815260200191505060405180910390a150565b611ed6336149fc565b1515611ee157600080fd5b6001601f60006101000a81548160ff0219169083151502179055507fa8cab3d1893ed53071b052fafa843143492f25d1d6b0170d460789f7ab1954be60405160405180910390a1565b60185481565b6000601f60009054906101000a900460ff16151515611f4e57600080fd5b611f56611e32565b600082141515611f6a57611f6982613d71565b5b611f748383614a0e565b905092915050565b60008060008373ffffffffffffffffffffffffffffffffffffffff1673ffffffffffffffffffffffffffffffffffffffff168152602001908152602001600020549050919050565b81818080601f016020809104026020016040519081016040528093929190818152602001838380828437820191505050505050601a816040518082805190602001908083835b60208310151561202f578051825260208201915060208101905060208303925061200a565b6001836020036101000a038019825116818451168082178552505050505050905001915050908152602001604051809103902060000160009054906101000a900460ff1680156120f85750601a816040518082805190602001908083835b6020831015156120b2578051825260208201915060208101905060208303925061208d565b6001836020036101000a038019825116818451168082178552505050505050905001915050908152602001604051809103902060000160019054906101000a900460ff16155b151561210357600080fd5b61210c84614c9f565b6001601a848460405180838380828437820191505092505050908152602001604051809103902060000160016101000a81548160ff02191690831515021790555061216284601954614e3490919063ffffffff16565b60198190555061217d84601854614e3490919063ffffffff16565b6018819055503373ffffffffffffffffffffffffffffffffffffffff167f0bd10d08cdd688ae27d8149d34aea2ddb78c6e0116355640cf1af79a2c9ab39485858560405180848152602001806020018281038252848482818152602001925080828437820191505094505050505060405180910390a250505050565b600061220361271c565b15151561220f57600080fd5b600660008473ffffffffffffffffffffffffffffffffffffffff1673ffffffffffffffffffffffffffffffffffffffff168152602001908152602001600020905061225d8888888888613f4f565b151561226857600080fd5b6122728882614484565b600660008373ffffffffffffffffffffffffffffffffffffffff1673ffffffffffffffffffffffffffffffffffffffff16815260200190815260200160002060000160009054906101000a900460ff1615801561231c5750600660008373ffffffffffffffffffffffffffffffffffffffff1673ffffffffffffffffffffffffffffffffffffffff16815260200190815260200160002060000160019054906101000a900460ff16155b151561232757600080fd5b82600760006101000a81548173ffffffffffffffffffffffffffffffffffffffff021916908373ffffffffffffffffffffffffffffffffffffffff16021790555081600860006101000a81548173ffffffffffffffffffffffffffffffffffffffff021916908373ffffffffffffffffffffffffffffffffffffffff1602179055506001600860146101000a81548160ff021916908360ff1602179055506000600860156101000a81548160ff021916908360ff160217905550600960006123ef91906155e3565b6009805480600101828161240391906155b7565b916000526020600020900160008a909190916101000a81548173ffffffffffffffffffffffffffffffffffffffff021916908373ffffffffffffffffffffffffffffffffffffffff160217905550505050505050505050565b600080600061246a3361490f565b151561247557600080fd5b61247d6149c0565b925082601b541115151561249057600080fd5b6124a5601b548461495190919063ffffffff16565b915081601e60008673ffffffffffffffffffffffffffffffffffffffff1673ffffffffffffffffffffffffffffffffffffffff16815260200190815260200160002054111515156124f557600080fd5b6124fe84614e52565b905061251581601c54614e3490919063ffffffff16565b601c8190555061253081601d54614e3490919063ffffffff16565b601d819055508373ffffffffffffffffffffffffffffffffffffffff167f8aec0ce3dadffacf4b7a963e0fed1ff2e6151b4c95d4a65acafa9d1299630402826040518082815260200191505060405180910390a250505050565b600080600061259833613459565b15156125a357600080fd5b8491508173ffffffffffffffffffffffffffffffffffffffff166370a08231306040518263ffffffff167c0100000000000000000000000000000000000000000000000000000000028152600401808273ffffffffffffffffffffffffffffffffffffffff1673ffffffffffffffffffffffffffffffffffffffff168152602001915050602060405180830381600087803b151561264057600080fd5b5af1151561264d57600080fd5b5050506040518051905090508173ffffffffffffffffffffffffffffffffffffffff1663a9059cbb85836040518363ffffffff167c0100000000000000000000000000000000000000000000000000000000028152600401808373ffffffffffffffffffffffffffffffffffffffff1673ffffffffffffffffffffffffffffffffffffffff16815260200182815260200192505050602060405180830381600087803b15156126fb57600080fd5b5af1151561270857600080fd5b505050604051805190509250505092915050565b600080600860149054906101000a900460ff1660ff16118061274a5750601060149054906101000a900460ff165b905090565b6000600660008373ffffffffffffffffffffffffffffffffffffffff1673ffffffffffffffffffffffffffffffffffffffff16815260200190815260200160002060000160019054906101000a900460ff1680156127f95750600660008373ffffffffffffffffffffffffffffffffffffffff1673ffffffffffffffffffffffffffffffffffffffff16815260200190815260200160002060000160029054906101000a900460ff165b9050919050565b60008061280b61343d565b151561281657600080fd5b61281f33614f8f565b151561282a57600080fd5b600091505b6015805490508210156128be573373ffffffffffffffffffffffffffffffffffffffff1660158381548110151561286257fe5b906000526020600020900160009054906101000a900473ffffffffffffffffffffffffffffffffffffffff1673ffffffffffffffffffffffffffffffffffffffff16141515156128b157600080fd5b818060010192505061282f565b601580548060010182816128d291906155b7565b9160005260206000209001600033909190916101000a81548173ffffffffffffffffffffffffffffffffffffffff021916908373ffffffffffffffffffffffffffffffffffffffff16021790555050821561295e576014600081819054906101000a900460ff168092919060010191906101000a81548160ff021916908360ff16021790555050612991565b6014600181819054906101000a900460ff168092919060010191906101000a81548160ff021916908360ff160217905550505b60009050600360ff16601460009054906101000a900460ff1660ff16101515612a1357600190506129cf601354601254614e3490919063ffffffff16565b6012819055507f06acbfb32bcf8383f3b0a768b70ac9ec234ea0f2d3b9c77fa6a2de69b919aad16013546040518082815260200191505060405180910390a1612a38565b600360ff16601460019054906101000a900460ff1660ff16101515612a3757600190505b5b8015612a8d5760006013819055506000601460006101000a81548160ff021916908360ff1602179055506000601460016101000a81548160ff021916908360ff16021790555060156000612a8c91906155e3565b5b505050565b612a9a6155a3565b60028054600181600116156101000203166002900480601f016020809104026020016040519081016040528092919081815260200182805460018160011615610100020316600290048015612b305780601f10612b0557610100808354040283529160200191612b30565b820191906000526020600020905b815481529060010190602001808311612b1357829003601f168201915b5050505050905090565b612b4333614fd1565b1515612b4e57600080fd5b612b5781613d71565b601760008373ffffffffffffffffffffffffffffffffffffffff1673ffffffffffffffffffffffffffffffffffffffff16815260200190815260200160002060030160009054906101000a900460ff16151515612bb357600080fd5b80601760008473ffffffffffffffffffffffffffffffffffffffff1673ffffffffffffffffffffffffffffffffffffffff168152602001908152602001600020600001819055506001601760008473ffffffffffffffffffffffffffffffffffffffff1673ffffffffffffffffffffffffffffffffffffffff16815260200190815260200160002060010160006101000a81548160ff021916908360ff1602179055506000601760008473ffffffffffffffffffffffffffffffffffffffff1673ffffffffffffffffffffffffffffffffffffffff16815260200190815260200160002060010160016101000a81548160ff021916908360ff160217905550601760008373ffffffffffffffffffffffffffffffffffffffff1673ffffffffffffffffffffffffffffffffffffffff1681526020019081526020016000206002016000612d0091906155e3565b601760008373ffffffffffffffffffffffffffffffffffffffff1673ffffffffffffffffffffffffffffffffffffffff1681526020019081526020016000206002018054806001018281612d5491906155b7565b9160005260206000209001600033909190916101000a81548173ffffffffffffffffffffffffffffffffffffffff021916908373ffffffffffffffffffffffffffffffffffffffff160217905550506001601760008473ffffffffffffffffffffffffffffffffffffffff1673ffffffffffffffffffffffffffffffffffffffff16815260200190815260200160002060030160006101000a81548160ff0219169083151502179055505050565b6000601f60009054906101000a900460ff16151515612e2057600080fd5b612e28611e32565b600082141515612e3c57612e3b82613d71565b5b612e468383615013565b905092915050565b60165481565b612e5d33613459565b1515612e6857600080fd5b8073ffffffffffffffffffffffffffffffffffffffff166108fc3073ffffffffffffffffffffffffffffffffffffffff16319081150290604051600060405180830381858888f193505050501515612ebf57600080fd5b50565b60028054600181600116156101000203166002900480601f016020809104026020016040519081016040528092919081815260200182805460018160011615610100020316600290048015612f585780601f10612f2d57610100808354040283529160200191612f58565b820191906000526020600020905b815481529060010190602001808311612f3b57829003601f168201915b505050505081565b601c5481565b60125481565b6000806000612f7a33614fd1565b1515612f8557600080fd5b601760008673ffffffffffffffffffffffffffffffffffffffff1673ffffffffffffffffffffffffffffffffffffffff16815260200190815260200160002092508260030160009054906101000a900460ff161515612fe357600080fd5b600091505b826002018054905082101561307b573373ffffffffffffffffffffffffffffffffffffffff16836002018381548110151561301f57fe5b906000526020600020900160009054906101000a900473ffffffffffffffffffffffffffffffffffffffff1673ffffffffffffffffffffffffffffffffffffffff161415151561306e57600080fd5b8180600101925050612fe8565b82600201805480600101828161309191906155b7565b9160005260206000209001600033909190916101000a81548173ffffffffffffffffffffffffffffffffffffffff021916908373ffffffffffffffffffffffffffffffffffffffff16021790555050831561311f5782600101600081819054906101000a900460ff168092919060010191906101000a81548160ff021916908360ff16021790555050613154565b82600101600181819054906101000a900460ff168092919060010191906101000a81548160ff021916908360ff160217905550505b60009050600260ff168360010160009054906101000a900460ff1660ff1610151561321e576001905061318b858460000154615256565b6131a48360000154601654614e3490919063ffffffff16565b6016819055507fb649c98f58055c520df0dcb5709eff2e931217ff2fb1e21376130d31bbb1c0af858460000154604051808373ffffffffffffffffffffffffffffffffffffffff1673ffffffffffffffffffffffffffffffffffffffff1681526020018281526020019250505060405180910390a1613245565b600260ff168360010160019054906101000a900460ff1660ff1610151561324457600190505b5b80156132bf576000836000018190555060008360010160006101000a81548160ff021916908360ff16021790555060008360010160016101000a81548160ff021916908360ff1602179055508260020160006132a191906155e3565b60008360030160006101000a81548160ff0219169083151502179055505b5050505050565b60195481565b60038054600181600116156101000203166002900480601f0160208091040260200160405190810160405280929190818152602001828054600181600116156101000203166002900480156133625780601f1061333757610100808354040283529160200191613362565b820191906000526020600020905b81548152906001019060200180831161334557829003601f168201915b505050505081565b6000601f60009054906101000a900460ff1615151561338857600080fd5b613390611e32565b6000821415156133a4576133a382613d71565b5b6133ae838361535b565b905092915050565b6000600160008473ffffffffffffffffffffffffffffffffffffffff1673ffffffffffffffffffffffffffffffffffffffff16815260200190815260200160002060008373ffffffffffffffffffffffffffffffffffffffff1673ffffffffffffffffffffffffffffffffffffffff16815260200190815260200160002054905092915050565b600080601460009054906101000a900460ff1660ff1611905090565b6000600660008373ffffffffffffffffffffffffffffffffffffffff1673ffffffffffffffffffffffffffffffffffffffff16815260200190815260200160002060000160009054906101000a900460ff1680156135035750600660008373ffffffffffffffffffffffffffffffffffffffff1673ffffffffffffffffffffffffffffffffffffffff16815260200190815260200160002060000160029054906101000a900460ff165b9050919050565b601060149054906101000a900460ff16151561352557600080fd5b8973ffffffffffffffffffffffffffffffffffffffff16601060009054906101000a900473ffffffffffffffffffffffffffffffffffffffff1673ffffffffffffffffffffffffffffffffffffffff161415151561358257600080fd5b8473ffffffffffffffffffffffffffffffffffffffff16601060009054906101000a900473ffffffffffffffffffffffffffffffffffffffff1673ffffffffffffffffffffffffffffffffffffffff16141515156135df57600080fd5b6135ec8a8a8a8a8a613f4f565b15156135f757600080fd5b6136048585858585613f4f565b151561360f57600080fd5b600060066000600a60009054906101000a900473ffffffffffffffffffffffffffffffffffffffff1673ffffffffffffffffffffffffffffffffffffffff1673ffffffffffffffffffffffffffffffffffffffff16815260200190815260200160002060000160026101000a81548160ff021916908315150217905550600060066000600b60009054906101000a900473ffffffffffffffffffffffffffffffffffffffff1673ffffffffffffffffffffffffffffffffffffffff1673ffffffffffffffffffffffffffffffffffffffff16815260200190815260200160002060000160026101000a81548160ff021916908315150217905550600060066000600c60009054906101000a900473ffffffffffffffffffffffffffffffffffffffff1673ffffffffffffffffffffffffffffffffffffffff1673ffffffffffffffffffffffffffffffffffffffff16815260200190815260200160002060000160026101000a81548160ff0219169083151502179055506137b1600d60009054906101000a900473ffffffffffffffffffffffffffffffffffffffff1661470d565b6137dc600e60009054906101000a900473ffffffffffffffffffffffffffffffffffffffff1661470d565b613807600f60009054906101000a900473ffffffffffffffffffffffffffffffffffffffff1661470d565b7f25f1f5bf76d36a31ec1b14caf64b580331299fd2037e3589426317b1cdfd4ecb600a60009054906101000a900473ffffffffffffffffffffffffffffffffffffffff16600d60009054906101000a900473ffffffffffffffffffffffffffffffffffffffff16604051808373ffffffffffffffffffffffffffffffffffffffff1673ffffffffffffffffffffffffffffffffffffffff1681526020018273ffffffffffffffffffffffffffffffffffffffff1673ffffffffffffffffffffffffffffffffffffffff1681526020019250505060405180910390a17f25f1f5bf76d36a31ec1b14caf64b580331299fd2037e3589426317b1cdfd4ecb600b60009054906101000a900473ffffffffffffffffffffffffffffffffffffffff16600e60009054906101000a900473ffffffffffffffffffffffffffffffffffffffff16604051808373ffffffffffffffffffffffffffffffffffffffff1673ffffffffffffffffffffffffffffffffffffffff1681526020018273ffffffffffffffffffffffffffffffffffffffff1673ffffffffffffffffffffffffffffffffffffffff1681526020019250505060405180910390a17f25f1f5bf76d36a31ec1b14caf64b580331299fd2037e3589426317b1cdfd4ecb600c60009054906101000a900473ffffffffffffffffffffffffffffffffffffffff16600f60009054906101000a900473ffffffffffffffffffffffffffffffffffffffff16604051808373ffffffffffffffffffffffffffffffffffffffff1673ffffffffffffffffffffffffffffffffffffffff1681526020018273ffffffffffffffffffffffffffffffffffffffff1673ffffffffffffffffffffffffffffffffffffffff1681526020019250505060405180910390a16000600a60006101000a81548173ffffffffffffffffffffffffffffffffffffffff021916908373ffffffffffffffffffffffffffffffffffffffff1602179055506000600b60006101000a81548173ffffffffffffffffffffffffffffffffffffffff021916908373ffffffffffffffffffffffffffffffffffffffff1602179055506000600c60006101000a81548173ffffffffffffffffffffffffffffffffffffffff021916908373ffffffffffffffffffffffffffffffffffffffff1602179055506000600d60006101000a81548173ffffffffffffffffffffffffffffffffffffffff021916908373ffffffffffffffffffffffffffffffffffffffff1602179055506000600e60006101000a81548173ffffffffffffffffffffffffffffffffffffffff021916908373ffffffffffffffffffffffffffffffffffffffff1602179055506000600f60006101000a81548173ffffffffffffffffffffffffffffffffffffffff021916908373ffffffffffffffffffffffffffffffffffffffff1602179055506000601060006101000a81548173ffffffffffffffffffffffffffffffffffffffff021916908373ffffffffffffffffffffffffffffffffffffffff1602179055506000601060146101000a81548160ff02191690831515021790555050505050505050505050565b613c9561343d565b151515613ca157600080fd5b613caa33614f8f565b1515613cb557600080fd5b613cbe81613d71565b806013819055506001601460006101000a81548160ff021916908360ff1602179055506000601460016101000a81548160ff021916908360ff16021790555060156000613d0b91906155e3565b60158054806001018281613d1f91906155b7565b9160005260206000209001600033909190916101000a81548173ffffffffffffffffffffffffffffffffffffffff021916908373ffffffffffffffffffffffffffffffffffffffff1602179055505050565b60018110151515613d8157600080fd5b50565b6000808214158015613e1357506000600160003373ffffffffffffffffffffffffffffffffffffffff1673ffffffffffffffffffffffffffffffffffffffff16815260200190815260200160002060008573ffffffffffffffffffffffffffffffffffffffff1673ffffffffffffffffffffffffffffffffffffffff1681526020019081526020016000205414155b15613e1d57600080fd5b81600160003373ffffffffffffffffffffffffffffffffffffffff1673ffffffffffffffffffffffffffffffffffffffff16815260200190815260200160002060008573ffffffffffffffffffffffffffffffffffffffff1673ffffffffffffffffffffffffffffffffffffffff168152602001908152602001600020819055508273ffffffffffffffffffffffffffffffffffffffff163373ffffffffffffffffffffffffffffffffffffffff167f8c5be1e5ebec7d5bd14f71427d1e84f3dd0314c0f7b2291e5b200ac8c7c3b925846040518082815260200191505060405180910390a36001905092915050565b6000601f60009054906101000a900460ff16151515613f2b57600080fd5b613f3361271c565b151515613f3f57600080fd5b613f488261274f565b9050919050565b600060116000866000191660001916815260200190815260200160002060009054906101000a900460ff16151515613f8657600080fd5b600160116000876000191660001916815260200190815260200160002060006101000a81548160ff0219169083151502179055508573ffffffffffffffffffffffffffffffffffffffff16600186868686604051600081526020016040526040518085600019166000191681526020018460ff1660ff1681526020018360001916600019168152602001826000191660001916815260200194505050505060206040516020810390808403906000865af1151561404257600080fd5b50506020604051035173ffffffffffffffffffffffffffffffffffffffff1614905095945050505050565b6000604460003690501015151561408357600080fd5b600073ffffffffffffffffffffffffffffffffffffffff168373ffffffffffffffffffffffffffffffffffffffff16141515156140bf57600080fd5b6000808573ffffffffffffffffffffffffffffffffffffffff1673ffffffffffffffffffffffffffffffffffffffff16815260200190815260200160002054821115151561410c57600080fd5b600160008573ffffffffffffffffffffffffffffffffffffffff1673ffffffffffffffffffffffffffffffffffffffff16815260200190815260200160002060003373ffffffffffffffffffffffffffffffffffffffff1673ffffffffffffffffffffffffffffffffffffffff16815260200190815260200160002054821115151561419757600080fd5b6141e8826000808773ffffffffffffffffffffffffffffffffffffffff1673ffffffffffffffffffffffffffffffffffffffff1681526020019081526020016000205461495190919063ffffffff16565b6000808673ffffffffffffffffffffffffffffffffffffffff1673ffffffffffffffffffffffffffffffffffffffff1681526020019081526020016000208190555061427b826000808673ffffffffffffffffffffffffffffffffffffffff1673ffffffffffffffffffffffffffffffffffffffff16815260200190815260200160002054614e3490919063ffffffff16565b6000808573ffffffffffffffffffffffffffffffffffffffff1673ffffffffffffffffffffffffffffffffffffffff1681526020019081526020016000208190555061434c82600160008773ffffffffffffffffffffffffffffffffffffffff1673ffffffffffffffffffffffffffffffffffffffff16815260200190815260200160002060003373ffffffffffffffffffffffffffffffffffffffff1673ffffffffffffffffffffffffffffffffffffffff1681526020019081526020016000205461495190919063ffffffff16565b600160008673ffffffffffffffffffffffffffffffffffffffff1673ffffffffffffffffffffffffffffffffffffffff16815260200190815260200160002060003373ffffffffffffffffffffffffffffffffffffffff1673ffffffffffffffffffffffffffffffffffffffff168152602001908152602001600020819055508273ffffffffffffffffffffffffffffffffffffffff168473ffffffffffffffffffffffffffffffffffffffff167fddf252ad1be2c89b69c2b068fc378daa952ba7f163c4a11628f55a4df523b3ef846040518082815260200191505060405180910390a3600190509392505050565b80601e60008473ffffffffffffffffffffffffffffffffffffffff1673ffffffffffffffffffffffffffffffffffffffff168152602001908152602001600020819055505050565b8060000160029054906101000a900460ff1615156144a157600080fd5b8060000160009054906101000a900460ff16156144d1576144c182613459565b15156144cc57600080fd5b614507565b8060000160019054906101000a900460ff1615614501576144f18261274f565b15156144fc57600080fd5b614506565b600080fd5b5b5050565b600073ffffffffffffffffffffffffffffffffffffffff168173ffffffffffffffffffffffffffffffffffffffff161415151561454457fe5b600660008273ffffffffffffffffffffffffffffffffffffffff1673ffffffffffffffffffffffffffffffffffffffff16815260200190815260200160002060000160009054906101000a900460ff161580156145ee5750600660008273ffffffffffffffffffffffffffffffffffffffff1673ffffffffffffffffffffffffffffffffffffffff16815260200190815260200160002060000160029054906101000a900460ff16155b15156145f957600080fd5b6001600660008373ffffffffffffffffffffffffffffffffffffffff1673ffffffffffffffffffffffffffffffffffffffff16815260200190815260200160002060000160006101000a81548160ff0219169083151502179055506000600660008373ffffffffffffffffffffffffffffffffffffffff1673ffffffffffffffffffffffffffffffffffffffff16815260200190815260200160002060000160016101000a81548160ff0219169083151502179055506001600660008373ffffffffffffffffffffffffffffffffffffffff1673ffffffffffffffffffffffffffffffffffffffff16815260200190815260200160002060000160026101000a81548160ff02191690831515021790555050565b600073ffffffffffffffffffffffffffffffffffffffff168173ffffffffffffffffffffffffffffffffffffffff161415151561474657fe5b600660008273ffffffffffffffffffffffffffffffffffffffff1673ffffffffffffffffffffffffffffffffffffffff16815260200190815260200160002060000160019054906101000a900460ff161580156147f05750600660008273ffffffffffffffffffffffffffffffffffffffff1673ffffffffffffffffffffffffffffffffffffffff16815260200190815260200160002060000160029054906101000a900460ff16155b15156147fb57600080fd5b6000600660008373ffffffffffffffffffffffffffffffffffffffff1673ffffffffffffffffffffffffffffffffffffffff16815260200190815260200160002060000160006101000a81548160ff0219169083151502179055506001600660008373ffffffffffffffffffffffffffffffffffffffff1673ffffffffffffffffffffffffffffffffffffffff16815260200190815260200160002060000160016101000a81548160ff0219169083151502179055506001600660008373ffffffffffffffffffffffffffffffffffffffff1673ffffffffffffffffffffffffffffffffffffffff16815260200190815260200160002060000160026101000a81548160ff02191690831515021790555050565b6000601f60009054906101000a900460ff1615151561492d57600080fd5b61493561271c565b15151561494157600080fd5b61494a8261274f565b9050919050565b600082821115151561495f57fe5b818303905092915050565b601f60009054906101000a900460ff1615151561498657600080fd5b7f767ac084c85ccc4567022083b0e326161cf70a2e0386ec6e26385c8063325e44816040518082815260200191505060405180910390a150565b6000602054905090565b6149d33361274f565b15156149de57600080fd5b601f60009054906101000a900460ff161515156149fa57600080fd5b565b6000614a0782613459565b9050919050565b600080600160003373ffffffffffffffffffffffffffffffffffffffff1673ffffffffffffffffffffffffffffffffffffffff16815260200190815260200160002060008573ffffffffffffffffffffffffffffffffffffffff1673ffffffffffffffffffffffffffffffffffffffff16815260200190815260200160002054905080831115614b1f576000600160003373ffffffffffffffffffffffffffffffffffffffff1673ffffffffffffffffffffffffffffffffffffffff16815260200190815260200160002060008673ffffffffffffffffffffffffffffffffffffffff1673ffffffffffffffffffffffffffffffffffffffff16815260200190815260200160002081905550614bb3565b614b32838261495190919063ffffffff16565b600160003373ffffffffffffffffffffffffffffffffffffffff1673ffffffffffffffffffffffffffffffffffffffff16815260200190815260200160002060008673ffffffffffffffffffffffffffffffffffffffff1673ffffffffffffffffffffffffffffffffffffffff168152602001908152602001600020819055505b8373ffffffffffffffffffffffffffffffffffffffff163373ffffffffffffffffffffffffffffffffffffffff167f8c5be1e5ebec7d5bd14f71427d1e84f3dd0314c0f7b2291e5b200ac8c7c3b925600160003373ffffffffffffffffffffffffffffffffffffffff1673ffffffffffffffffffffffffffffffffffffffff16815260200190815260200160002060008873ffffffffffffffffffffffffffffffffffffffff1673ffffffffffffffffffffffffffffffffffffffff168152602001908152602001600020546040518082815260200191505060405180910390a3600191505092915050565b6000601f60009054906101000a900460ff16151515614cbd57600080fd5b600082111515614ccc57600080fd5b6000803373ffffffffffffffffffffffffffffffffffffffff1673ffffffffffffffffffffffffffffffffffffffff168152602001908152602001600020549050818110151515614d1c57600080fd5b614d6d826000803373ffffffffffffffffffffffffffffffffffffffff1673ffffffffffffffffffffffffffffffffffffffff1681526020019081526020016000205461495190919063ffffffff16565b6000803373ffffffffffffffffffffffffffffffffffffffff1673ffffffffffffffffffffffffffffffffffffffff16815260200190815260200160002081905550614dc48260165461495190919063ffffffff16565b601681905550600073ffffffffffffffffffffffffffffffffffffffff163373ffffffffffffffffffffffffffffffffffffffff167fddf252ad1be2c89b69c2b068fc378daa952ba7f163c4a11628f55a4df523b3ef846040518082815260200191505060405180910390a35050565b6000808284019050838110151515614e4857fe5b8091505092915050565b600080601f60009054906101000a900460ff16151515614e7157600080fd5b6000808473ffffffffffffffffffffffffffffffffffffffff1673ffffffffffffffffffffffffffffffffffffffff168152602001908152602001600020549050600081111515614ec157600080fd5b60008060008573ffffffffffffffffffffffffffffffffffffffff1673ffffffffffffffffffffffffffffffffffffffff16815260200190815260200160002081905550614f1a8160165461495190919063ffffffff16565b601681905550600073ffffffffffffffffffffffffffffffffffffffff168373ffffffffffffffffffffffffffffffffffffffff167fddf252ad1be2c89b69c2b068fc378daa952ba7f163c4a11628f55a4df523b3ef836040518082815260200191505060405180910390a380915050919050565b6000601f60009054906101000a900460ff16151515614fad57600080fd5b614fb561271c565b151515614fc157600080fd5b614fca82613459565b9050919050565b6000601f60009054906101000a900460ff16151515614fef57600080fd5b614ff761271c565b15151561500357600080fd5b61500c8261274f565b9050919050565b6000604460003690501015151561502957600080fd5b60008211151561503857600080fd5b600073ffffffffffffffffffffffffffffffffffffffff168373ffffffffffffffffffffffffffffffffffffffff161415151561507457600080fd5b6000803373ffffffffffffffffffffffffffffffffffffffff1673ffffffffffffffffffffffffffffffffffffffff1681526020019081526020016000205482111515156150c157600080fd5b615112826000803373ffffffffffffffffffffffffffffffffffffffff1673ffffffffffffffffffffffffffffffffffffffff1681526020019081526020016000205461495190919063ffffffff16565b6000803373ffffffffffffffffffffffffffffffffffffffff1673ffffffffffffffffffffffffffffffffffffffff168152602001908152602001600020819055506151a5826000808673ffffffffffffffffffffffffffffffffffffffff1673ffffffffffffffffffffffffffffffffffffffff16815260200190815260200160002054614e3490919063ffffffff16565b6000808573ffffffffffffffffffffffffffffffffffffffff1673ffffffffffffffffffffffffffffffffffffffff168152602001908152602001600020819055508273ffffffffffffffffffffffffffffffffffffffff163373ffffffffffffffffffffffffffffffffffffffff167fddf252ad1be2c89b69c2b068fc378daa952ba7f163c4a11628f55a4df523b3ef846040518082815260200191505060405180910390a36001905092915050565b61525f81615557565b6152b0816000808573ffffffffffffffffffffffffffffffffffffffff1673ffffffffffffffffffffffffffffffffffffffff16815260200190815260200160002054614e3490919063ffffffff16565b6000808473ffffffffffffffffffffffffffffffffffffffff1673ffffffffffffffffffffffffffffffffffffffff168152602001908152602001600020819055508173ffffffffffffffffffffffffffffffffffffffff163073ffffffffffffffffffffffffffffffffffffffff167fddf252ad1be2c89b69c2b068fc378daa952ba7f163c4a11628f55a4df523b3ef836040518082815260200191505060405180910390a35050565b60006153ec82600160003373ffffffffffffffffffffffffffffffffffffffff1673ffffffffffffffffffffffffffffffffffffffff16815260200190815260200160002060008673ffffffffffffffffffffffffffffffffffffffff1673ffffffffffffffffffffffffffffffffffffffff16815260200190815260200160002054614e3490919063ffffffff16565b600160003373ffffffffffffffffffffffffffffffffffffffff1673ffffffffffffffffffffffffffffffffffffffff16815260200190815260200160002060008573ffffffffffffffffffffffffffffffffffffffff1673ffffffffffffffffffffffffffffffffffffffff168152602001908152602001600020819055508273ffffffffffffffffffffffffffffffffffffffff163373ffffffffffffffffffffffffffffffffffffffff167f8c5be1e5ebec7d5bd14f71427d1e84f3dd0314c0f7b2291e5b200ac8c7c3b925600160003373ffffffffffffffffffffffffffffffffffffffff1673ffffffffffffffffffffffffffffffffffffffff16815260200190815260200160002060008773ffffffffffffffffffffffffffffffffffffffff1673ffffffffffffffffffffffffffffffffffffffff168152602001908152602001600020546040518082815260200191505060405180910390a36001905092915050565b61555f61343d565b15151561556b57600080fd5b61557481613d71565b806012541015151561558557600080fd5b61559a8160125461495190919063ffffffff16565b60128190555050565b602060405190810160405280600081525090565b8154818355818115116155de578183600052602060002091820191016155dd9190615604565b5b505050565b50805460008255906000526020600020908101906156019190615604565b50565b61562691905b8082111561562257600081600090555060010161560a565b5090565b905600a165627a7a72305820cc63ab1bf8fc9337a17e28f3f6fa35a2c78ce14173ad0fd733008e37ad1c632e0029",
  "source": "pragma solidity ^0.4.21;\r\nimport \"../Cacao.sol\";\r\n\r\ncontract CacaoRescueMock is Cacao {\r\n\r\n    uint256 fakeBlockNumber;\r\n\r\n    function CacaoRescueMock(\r\n        address _creatorAddress1,\r\n        address _creatorAddress2,\r\n        address _creatorAddress3,\r\n        address _creatorAddress4,\r\n        address _distributionAddress1,\r\n        address _distributionAddress2,\r\n        address _distributionAddress3,\r\n        uint256 _initialBlockNumber\r\n    ) \r\n    Cacao(\r\n        _creatorAddress1,\r\n        _creatorAddress2,\r\n        _creatorAddress3,\r\n        _creatorAddress4,\r\n        _distributionAddress1,\r\n        _distributionAddress2,\r\n        _distributionAddress3\r\n    )\r\n    public {\r\n        fakeBlockNumber = _initialBlockNumber;\r\n    }\r\n    \r\n    function getBlockNumber() internal view returns (uint256 _blockNumber) {\r\n        return fakeBlockNumber;\r\n    }\r\n\r\n    function registerTransactionBlockNumber(address _address, uint256 _blockNumber) public {\r\n        registerTransaction(_address, _blockNumber);\r\n    }\r\n}",
  "sourcePath": "D:\\o0w3wo\\Crypto\\Cacao\\coin\\contracts\\test\\CacaoRescueMock.sol",
  "compiler": {
    "name": "solc",
    "version": "0.4.21+commit.dfe3193c.Emscripten.clang"
  },
  "schemaVersion": "2.0.0",
  "updatedAt": "2018-05-22T05:56:41.616Z"
}